:020000040800F2
:10000000A80E0020A90100082B320008F52F0008D7
:1000100029320008F91400087538000800000000B3
:10002000000000000000000000000000BD340008D7
:100030003315000800000000BB340008BF3400087E
:10004000C3010008C3010008C3010008C301000880
:10005000C3010008C3010008C3010008C301000870
:10006000C3010008C3010008C3010008FD14000813
:10007000C3010008C3010008C3010008C301000850
:10008000C3010008C3010008A9130008C301000848
:10009000C3010008C3010008C3010008C301000830
:1000A000C3010008C3010008C3010008C301000820
:1000B000C30100083D350008C3010008C301000862
:1000C000C3010008C3010008C3010008C301000800
:1000D000C301000869380008C3010008C301000813
:1000E000C3010008C3010008C301000800F002F8C2
:1000F00000F04AF80AA090E8000C82448344AAF178
:100100000107DA4501D100F03FF8AFF2090EBAE875
:100110000F0013F0010F18BFFB1A43F0010318473B
:10012000BC4B0000DC4B0000103A24BF78C878C1FB
:10013000FAD8520724BF30C830C144BF04680C60ED
:10014000704700000023002400250026103A28BF35
:1001500078C1FBD8520728BF30C148BF0B60704739
:10016000662904F0B080732900F0DB83002070471B
:100170001FB500F0DBFB04000020002103F032FD7E
:10018000E0601FBD10B510BD00F0D0FC1146FFF7B8
:10019000EFFF03F09BFB00F0EEFC03B4FFF7F2FF70
:1001A00003BC00F031FD00000948804709480047C2
:1001B000FEE7FEE7FEE7FEE7FEE7FEE7FEE7FEE717
:1001C000FEE7FEE704480549054A064B7047000074
:1001D0003B350008ED000008A8080020A80E00200C
:1001E000A80A0020A80A00200FB41CB5084B06AAD4
:1001F0007B4469460090059800F069FB04460020A6
:10020000694600F077FB20461CBC5DF814FB00003B
:100210000107000070B50C460546012A05D0287874
:10022000800600D5EA69002302E0012305E05B1C9B
:10023000934202D2E05C0028F9D1A869E618C01AFE
:10024000A861286A184428622846AFF3008004E0B9
:10025000D5E9012114F8010B9047B442F8D32846A0
:10026000AFF3008070BD00002DE9F05F89460446C1
:100270004FF0000ADFF874B1FB44C0F820A020461C
:10028000E1688847002874D0252806D0D4E90121E8
:100290009047206A401C2062F1E700265F46204616
:1002A000E16888472028054607DB312D05D27819FB
:1002B00010F8200C08B10643F1E7B00701D526F08D
:1002C0000406C4F81CA00027C4F818A02A2D09D0E1
:1002D000284603F0F4FA38B304EB8708303DC8F839
:1002E000185019E059F8041B204604EB870291616D
:1002F000E1688847012F054618D1E069002820DA17
:1003000026F020061DE0D8F8180000EB800005EB71
:1003100040003038C8F818002046E1688847054694
:1003200003F0CDFA0028EED1012F0AD02E2D08D1EE
:100330002046E16888477F1C0546022F46F02006CC
:10034000C4DBA069002803DA404246F00106A06140
:10035000F00701D026F010066C2D0BD0682D09D0C7
:100360004C2D39D06A2D35D0742D35D07A2D33D01F
:1003700016E038E0E1682F4620468847B842054637
:1003800009D16C2F26D04FF48060E16806432046E7
:100390008847054604E06C2F1AD04FF4807006435E
:1003A0000DB3A5F14100192802D8203546F40066A6
:1003B0004A462946204626604E46FFF7D1FE80B1C8
:1003C00001280BD0F61D26F0070000F1080956E7BA
:1003D0004020E4E78020D8E70020D6E706F10409B2
:1003E0004DE7284652E7206ABDE8F09FBA49000071
:1003F00030B505460B462A4613F8014B12F8010B9F
:1004000008B1A042F8D01CB1002802D06D1CF1E761
:10041000284630BD10B5431C02E010F8011B71B135
:100420008107FAD14FF0013202C88C1A8C4314EACA
:10043000C211F9D0C01A0A0603D0C01E10BDC01ADE
:1004400010BD0A0401D0801E10BD0902FCD0401E60
:1004500010BD4FF0000200B5134694469646203971
:1004600022BFA0E80C50A0E80C50B1F12001BFF46D
:10047000F7AF090728BFA0E80C5048BF0CC05DF8D3
:1004800004EB890028BF40F8042B08BF704748BF21
:1004900020F8022B11F0804F18BF00F8012B704795
:1004A00070477047704770472DE9FF4F0C461E4656
:1004B0004FF0FF378BB0D2E90001DDF860800A9081
:1004C0008A46C1F30A5505B93D46002108464FF05A
:1004D0000000BAF1000F00F4400005DA00EB8000E4
:1004E0004FF4400101EA50004FEA9059B9F1010F71
:1004F00000DDB9460A9850EA4A000ED044F6105082
:10050000A5F2FF3545432F14B8F1000F1ED07542F8
:10051000291E1EDDC9F100021CE0B8F1010F4FF0E9
:10052000000001D0302103E0F24305E02154401CDB
:10053000B042FBDB30460022002121540B99C1F868
:100540000880C1E900200FB0BDE8F08FBD1B6D1C15
:10055000DEE74A4600DA694206A800F071FA06AB07
:1005600093E8070003AB83E8070050460A9900F0C0
:1005700052FB8DE80700A0F500501F38009003984B
:10058000002D0ADD42F21F014A460844002303A958
:100590000390684600F0BBFD09E0A0F500504A4614
:1005A0001F38002303A90390684600F0C5FD8DE8BD
:1005B00007000004000C03D04FF0FF30410800E0BA
:1005C0001046B8F1000F03D00022009215461EE03D
:1005D000751E05D400F0AEF9303262556D1EF9D5A6
:1005E000B3460122084302D000227F1C04E0207899
:1005F000302801D100227F1E002A099784D01DE0F7
:10060000112D07DA00F096F9303262556D1C50EA70
:100610000102F5D1084302D00098C8B10EE00021D4
:10062000681E05E0235C625C63542254401E491C32
:100630008142F7DBAB46A81B401E0990002004F85E
:100640000B000B98099AC0F80880C0E9002B7AE7E4
:1006500011264FF0000857E72DE9F04F8846044671
:10066000D21D22F0070191B0D1E90001CDE90A01C4
:1006700003F001F902460B98C00F01D02D2007E0CE
:100680002068810701D52B2002E0202101EAC0006B
:10069000032A099001D0072A05DB0346414620467C
:1006A00000F08EF90BE12078800601D5E06900E0CA
:1006B0000620B8F1650F814606D0B8F1660F18D054
:1006C000B8F1670F70D131E00020B9F1110F00903F
:1006D00001DB112301E009F101030AAA01A90CA819
:1006E000FFF7E2FEDDE90C70002609F10105834603
:1006F00047E001204B4600904FF000470AAA01A9AD
:100700000CA8FFF7D1FEDDE90DB00C995D4600267F
:1007100010B909F101000D18B9EB050003D4C0F1BF
:10072000FF3609F10105A5EB09002BE0B9F1010F36
:1007300001DA4FF001090020B9F1110F009048468D
:1007400001DD112300E003460AAA01A90CA8FFF766
:10075000ABFEDDE90C704D4600268346207800078D
:100760000AD4AB4500DA5D4601A8012D04DD41192C
:1007700011F8011C302907D04F4502DA17F1040F98
:1007800004DA012082460FE06D1EEEE7002F02DC46
:10079000ED1B3E4403E0781CA84200DD7D1CB81B25
:1007A00000F1010A4FF000472078000703D4AA4562
:1007B00001DB4FF0FF3A0021B7F1004F0DF1430884
:1007C0008DF8431024D002202B23002F01DA7F4222
:1007D0002D230A21021EA0F1010000DC5FB197FB6E
:1007E000F1FC97FBF1F201FB1C7C17460CF1300C7D
:1007F00008F801CDEEE7A8F1010003702188090592
:1008000001D5452100E06521A0F1010800F8011C97
:1008100009980FA9A1EB0807FF1D00B1012041199C
:1008200001EBEA70A1693844081A401EA0612078E3
:10083000C00602D42046AFF30080099828B1D4E95D
:1008400001219047206A401C20622078C00622D5F2
:100850002046AFF300801EE0002E04DBB34502DD2E
:1008600001A8805D00E03020D4E901219047206A92
:10087000401C2062761CAAF101005FEA000A0AD13E
:1008800000F054F8C0680168405CD4E90121904749
:10089000206A401C2062281EA5F10105DCDC07E06F
:1008A000D4E9012118F8010B9047206A401C20620E
:1008B000381EA7F10107F3DC2046AFF300800320C8
:1008C00011B041E601694A1C02610878704700B521
:1008D0008FB0CDE901310021059105497944CDE979
:1008E000031011466846FFF7BFFC0FB000BD0000C3
:1008F000E5FFFFFF0A6802F8010B0A60704710B5B8
:10090000436913B1AFF3008001E0FFF783FC0120DE
:1009100010BD127800F124010A7000224A700122F1
:10092000EDE711684FF0FF32E9E70000004870473B
:100930006808002030B5B0F10A024FEA900E71F15C
:1009400000034EEA817EB0EB0E0061EB91014FEAAD
:10095000101E4EEA017E10EB0E0041EB11114FEA22
:10096000102E4EEA016E10EB0E0041EB11214FEA02
:10097000104E4EEA014E10EB0E0041EB11414018B3
:1009800041F100014FEAD00040EA41704FEAD10145
:1009900010EB80054FEA810444EA907444EB0104B3
:1009A0006D1944EB0404521BA3414FF0000348BFF0
:1009B0000A3200D530BD401C41F1000130BD0000BD
:1009C0002DE9F0411F46044603260168072A01F479
:1009D000006004DB08B116A505E016A503E008B128
:1009E00015A500E015A521F010002060A069C01E2B
:1009F000A0610FB1401EA0612046AFF300804FB14F
:100A0000D4E9012138469047206A401C2062C01C6E
:100A1000206206E0206AFAE7D4E9012115F8010B0B
:100A20009047761EF8D22046AFF30080BDE8F081F3
:100A30004E414E006E616E00494E4600696E660082
:100A40002DE9F047814616468AB0354878440DC8EE
:100A50008DE80D0032487844801C03AC0DC884E852
:100A60000D0041F69B300844372190FBF1F290FBDA
:100A7000F1F5A5F1800501FB12041B3C02D564428F
:100A8000012000E00020DFF898A080460027FA440B
:100A9000AAF1BE0A0EE0E0070AD03246684607EB2C
:100AA000470101230AEB810100F046FB8DE80700B6
:100AB00064107F1C002CEED1194F7F44AE3F19E02B
:100AC000E80715D007EB04100DF1180A90E80E00A6
:100AD0008AE80E00C068F04201D1981908903246A9
:100AE000012306A903A800F027FB03AB83E8070056
:100AF0006D10641C002DE3D14FF0010332466946AE
:100B0000B8F1000F03A802D000F001FB01E000F0F3
:100B100013FBC9E90001C9F808200AB0BDE8F08755
:100B20007442000000487047480800207546FFF7EF
:100B3000F9FFAE4605006946534620F0070085469A
:100B400018B020B5FFF73EFBBDE820404FF000068F
:100B50004FF000074FF000084FF0000B21F00701A5
:100B6000AC46ACE8C009ACE8C009ACE8C009ACE8E8
:100B7000C0098D46704710B50446AFF3008020468B
:100B8000BDE81040FFF709BB4FF0013C50F8042BC3
:100B900051F8043B9A4221D1A2EB0C03934313EA90
:100BA000CC1317D150F8042B51F8043B9A4215D1BD
:100BB000A2EB0C03934313EACC130BD150F8042B94
:100BC00051F8043B9A4209D1A2EB0C03934313EA78
:100BD000CC13DBD04FF00000704700BFD01A01BA31
:100BE000B1FA81F101F0180122FA01F0CB40C1F114
:100BF0002001DBB2C0B2C01A2CFA01F3D11A914322
:100C000011EAC311E6D1704701491820ABBEFEE7D7
:100C10002600020070475FEA400C08BF91F0000F09
:100C20004FEA8C234FEAC12243EA51514FEA1C504C
:100C300018BF00F5F0404FEA300018BF41F0004106
:100C40005FEA6C5C00F02980BCF1FF3F08BF40F018
:100C500080407047130C06BF12044FF0100C4FF089
:100C6000000C130E04BF12020CF1080C130F04BF8A
:100C700012010CF1040C930F04BF92000CF1020C52
:100C8000D30F04BF52000CF1010C11464FF00002CB
:100C9000A0F11F00A0EB0C00704711F0004F08BF3F
:100CA000704731F000413FF4D5AF0B0C06BF09048B
:100CB0004FF0100C4FF0000C0B0E04BF09020CF1AA
:100CC000080C0B0F04BF09010CF1040C8B0F04BFBF
:100CD00089000CF1020CCB0F04BF49000CF1010C90
:100CE000CCF12003A0EB0C0022FA03F302FA0CF281
:100CF00041EA030100F10100704720F07F4C80EAD7
:100D0000030023F07F47ACEB070303F57C5300F0AF
:100D1000004003F1FF032DE980494FEA154B09B468
:100D20004FEA144325EA0B4E24EA03480FF2042647
:100D300006EB132749083E785FEA320203FB066799
:100D4000C7F5000707FB06F64FEA54374FEAD646C9
:100D500006F1020607FB066CCCF1005C4FEA1C476B
:100D60002CEA074C07FB06F40CFB06F504EB1546D2
:100D70004FEA961634BF00204FF000404FEAD137BB
:100D800006FB07FC4FEA1C4C0CFB0BF7D21B03FBCA
:100D90000CF761EB07010CFB0EF7B0EB074072EBB1
:100DA00017420CFB08F734BFA2EB0742B2EB074235
:100DB00061EB17414FEA0C444FEA910706FB07FC31
:100DC0004FEA1C4C0CFB0BF7B0EBC74072EB5732F1
:100DD00003FB0CF734BFA2EBC742B2EBC74261EB97
:100DE00057310CFB0EF7B0EBC70072EB57720CFBE0
:100DF00008F734BFA2EBC702B2EBC70261EB577131
:100E0000039F4FEA816141EA921104EBCC044FEA5F
:100E1000D1374FEA826206FB07FC42EA90124FEAA2
:100E200080604FEA1C4C0CFB0BF7D21B03FB0CF74A
:100E300061EB07010CFB0EF7B0EB074072EB1742BA
:100E40000CFB08F734BFA2EB0742B2EB074261EBA1
:100E500017414FEA8C554FEA910704EB9C2406FB9F
:100E600007FC4FEA1C4C0CFB0BF7B0EBC74072EBD6
:100E7000573203FB0CF734BFA2EBC742B2EBC742B9
:100E800061EB57310CFB0EF7B0EBC70072EB5772FA
:100E90000CFB08F734BFA2EBC702B2EBC70261EB51
:100EA000577115EB4C254FEA816141EA92114FEAE7
:100EB00082624FEAD13742EA901206FB07FC44F106
:100EC00000044FEA80604FEA1C4C0CFB0BF7D21B6E
:100ED00003FB0CF761EB07010CFB0EF7B0EB0740CF
:100EE00072EB17420CFB08F734BFA2EB0742B2EBE0
:100EF000074261EB174115EB1C154FEA813141EABE
:100F000092414FEA823242EA90424FEA80304FEA01
:100F10000C7644F1000448EA03434EEA0B484FF0D4
:100F2000000EB2EB080C71EB030724BF6246394692
:100F30004EEB0E0E4FF0000B0018524149414BEBA7
:100F40000B0BB2EB080C71EB03077BF1000B24BF1A
:100F5000624639464EEB0E0E4FF0000B0018524120
:100F600049414BEB0B0BB2EB080C71EB03077BF128
:100F7000000B24BF624639464EEB0E0E51EA0207C3
:100F800018BF46F0010616EB0E7655F1000254F13B
:100F9000000103D5BDE88901BDE80088BDE88901ED
:100FA000BDE80048B619524141EB0101A3F101032C
:100FB000704780807F7E7D7C7B7A797877767675C6
:100FC0007473727171706F6E6E6D6C6C6B6A6A693E
:100FD0006868676666656464636362616160605FD8
:100FE0005F5E5E5D5D5C5C5B5B5A5A595958585751
:100FF00057565655555554545353525252515150B9
:1010000050504F4F4F4E4E4D4D4D4C4C4C4B4B4B0B
:101010004A4A4A4949494848484747474746464651
:10102000454545444444444343434342424242418C
:101030004141002B9C4630D477002BD01CB54FEAA1
:10104000370703B44FF010004FF01001BAF1000F52
:1010500006D0BCF1000FDCBF40F0080040F00801F2
:101060004FF000000FBCBDE810400BF1010BBBF1CD
:10107000010F08BF5FEA170722BF12F1010211F149
:1010800001014FF0004143F1000300F0004043EA4A
:1010900000007047F9D35708D0E746EA064613F137
:1010A000400F4FEA16461FDD13F1200FDFBF164336
:1010B0000A46002120335B42BED0C3F1200746EA36
:1010C000064602FA07F74FEA164646EA0706C3F154
:1010D000200722FA03F201FA07F721FA03F14FF091
:1010E000000342EA0702A7E746EA020646EA064686
:1010F0004FEA164646EA0106BCBF46EA0646360CEB
:101100004FF000034FF000024FF0000194E72DE98B
:10111000804C9A46934670B491E8380007C831EA8B
:10112000400C48BF34EA430C03D5FFF7E6FDFFF758
:1011300080FFF0BCBDE8008C2DE9804C9A469346B8
:1011400070B491E8380007C810F0804F08BF13F062
:10115000804F03D100F005F8FFF76BFFF0BCBDE84E
:10116000008C20F07F4780EA030023F07F4C07EBE0
:101170000C03A3F57C5300F00040A3F1FE0392F0B2
:10118000000F00F0B38095F0000F00F077802DE99C
:1011900001494FEA11404FEA144621EA004800FB9A
:1011A00006FC24EA064708FB06F607FB08F800FBE6
:1011B00007F718EB06484CEB164C4FEA124B18EBAE
:1011C00007484FEA15464CEB174022EA0B4E0BFB43
:1011D00006FC25EA06470EFB06F607FB0EFE0BFB98
:1011E00007F71EEB064E4CEB164C4FF000061EEBBD
:1011F000074E4CEB174B18EB0B0840F1000018EBB7
:101200000E0B58EB000840F100008F1A4FF0000160
:101210003CBFC943661B14BFB5EB040C00213CBFA7
:10122000C943F61B4FEA17444EEA8E0E27EA0445DF
:101230004FEA1C4704FB07622CEA074C05FB07F743
:101240000CFB05F604FB0CFC16EB074642EB1742C1
:1012500016EB0C4642EB1C421BEB060658EB020257
:10126000414146EA9E0601D5BDE80189B6195241C1
:1012700041EB0101A3F10103BDE801894FEA1445E7
:101280004FEA114724EA054621EA074C05FB07F41B
:1012900006FB07F70CFB06F105FB0CFC11EB074105
:1012A00044EB17444FEA124711EB0C4144EB1C444A
:1012B00022EA074C05FB07F206FB07F70CFB06F6D4
:1012C00005FB0CFC16EB074642EB174216EB0C46EF
:1012D00042EB1C456A1854F1000148BF7047B6192B
:1012E000524141EB0101A3F10103704795F0000F5A
:1012F00037D04FEA11424FEA144721EA024624EA66
:10130000074C02FB07F106FB07F70CFB06F402FB98
:101310000CFC14EB074441EB17414FEA154714EB63
:101320000C4441EB1C4125EA074C02FB07F506FB88
:1013300007F70CFB06F602FB0CFC16EB074645EB29
:10134000174516EB0C4645EB1C42121951F10001F2
:1013500048BF7047B619524141EB0101A3F10103A7
:1013600070474FEA14454FEA114724EA054621EA3F
:10137000074C05FB07F106FB07F70CFB06F24FF0E5
:10138000000605FB0CFC12EB074241EB174112EB88
:101390000C4251EB1C4148BF7047921841EB0101D0
:1013A000A3F1010370470000014800F0D7B9000025
:1013B0004807002070B5044600688168C943C90722
:1013C00017D1816821F00101816000F027FE0546F8
:1013D0000AE000BF00F022FE401B022804D920686A
:1013E0008068C043C00706D020688068C043C0073B
:1013F000F0D0002070BDA06A40F01000A062E06A4A
:1014000040F00100E062012070BD10B50146406A65
:10141000826A12F0500F05D0006A026BBDE81040DE
:1014200008461047816A41F4007181620168896849
:10143000C1F3424107290CD1017B51B9816A21F4E2
:1014400080718162816AC90403D4816A41F001011B
:10145000816200F05DF910BD10B5406A816A41F00B
:1014600040018162C16A41F00401C16200F075F976
:1014700010BD10B5406A00F06FF910BDF8B5002638
:101480000446009600688168C943C9072DD0816869
:1014900041F001018160164816490068B0FBF1F087
:1014A00000E0401E00900028FBD100F0B7FD05468B
:1014B00016E000BF00F0B2FD401B022810D92068E2
:1014C0008068C043C0070BD0A06A40F01000A06243
:1014D000E06A40F00100E06284F824600120F8BD79
:1014E00020688068C043C007E4D10020F8BD000038
:1014F0004400002040420F00FEE70000014800F0D9
:1015000075BB00000408002030B590F8405001245D
:10151000AC40C56B6C60046863604368102B036863
:1015200003D099600068C26030BD9A600068C160F5
:1015300030BD704772B6FEE7F8B500250446009549
:1015400090F82400012808D0012084F824002046C7
:10155000FFF730FF060002D053E00220F8BDA06A7A
:1015600020F4885040F00200A062022000F0ECFD60
:1015700026490968B1FBF0F0400000E0401E0090F1
:101580000028FBD12046FFF779FF2068816841F0F1
:101590000801816000F042FD074608E000F03EFDD2
:1015A000C01B0A2803D920688068000715D420686A
:1015B00080680007F2D42068816841F004018160EE
:1015C00000F02CFD074612E000F028FDC01B0A28A1
:1015D0000DD920688068400709D5A06A20F0020074
:1015E00040F01000A06284F824500120F8BD20686B
:1015F00080684007E8D4A06A20F0020040F00100B3
:10160000A06284F824503046F8BD00004400002059
:1016100070470000F8B50024009490F82420254677
:10162000012A12D0012280F824204A681F23072AA9
:101630000DD20668776B521E02EB820293409F43E5
:101640000B6893401F43776319E00220F8BD0668DA
:101650000D2A0AD2376BD21F02EB820293409F43BE
:101660000B6893401F43376309E0F76A0D3A02EBBA
:10167000820293409F430B6893401F43F7620A68BE
:10168000072306680A2A0AD3F7680A3A02EB4202DD
:1016900093409F438B6893401F43F76008E037698E
:1016A00002EB420293409F438B6893401F43376194
:1016B0000A68102A01D0112A20D1124B02689A42DE
:1016C00017D193681B0219D4936843F40003936005
:1016D0000968102912D10C490C4A0968B1FBF2F1D2
:1016E00001EB8101490000E0491E00910029FBD176
:1016F00004E0816A41F020018162012480F82450D5
:101700002046F8BD002401404400002040420F0064
:1017100010B50E4CA06810F0FF4F03D1E06810F038
:10172000FF4F02D00120207110BD0948006802F06F
:1017300051FB4FF06632074B02F060FB6FF00B027B
:1017400002F0F5FD02F064FAA06010BD0000002078
:101750004800002066660A407047704710B504468E
:1017600000684168890626D50168890723D5A16AE2
:10177000C90603D4A16A41F40071A1628168C1F372
:101780004241072910D1217B71B9416821F0200124
:101790004160A06A20F48070A062A06AC00403D4F3
:1017A000A06A40F00100A0622046FFF7B1FF216867
:1017B0006FF0120008602068416809062ED50168A4
:1017C00049072BD5A16AC90603D4A16A41F4005187
:1017D000A1628168C1F30231072909D04168490536
:1017E00015D48168C1F34241072910D1217B71B919
:1017F000416821F080014160A06A20F48050A0621D
:10180000A06AC00503D4A06A40F00100A06220468F
:10181000FFF7FEFE21686FF00C0008602068416849
:1018200049060DD50068C0070AD0A06A40F4803090
:10183000A062204600F094F821686FF00100086073
:1018400010BD00002DE9F0414FF0000704003D46B7
:101850007ED0A06A002628B9E66284F8246020467B
:1018600000F080F82046FFF7A5FDA16AC90600D464
:1018700020B1A06A40F01000A06269E0A16A21F4E2
:10188000885141F00201A1626268E169237B0A4349
:1018900047EA43010A43A1684FF48077B94209D06F
:1018A000012907D05FF0000194F814C0BCF1010FCA
:1018B00002D00AE03946F7E7F3B1A36A43F0200308
:1018C000A362E36A43F00103E3622368D3F804C030
:1018D0002CF4694C4CEA010CC3F804C021688B68F5
:1018E000DFF870C003EA0C0313438B60A168B942B0
:1018F0000BD0012909D00CE0DFF85CC0A3690CEB28
:1019000043330B4343F40061DFE7218A0D05A5F55E
:1019100080152168CB6A23F470032B43CB622168C6
:1019200089680E4B1940914208D1E662A16A21F004
:10193000020141F00101A162BDE8F081A06A20F03E
:10194000020040F01000A062E06A40F00100E06296
:101950000120F1E7FDF7E1FF00E0FFFFFE0E1FFFB2
:101960007047000070B586B00025064600950195C9
:101970000295039500681D49884235D11C49886944
:1019800040F400708861886900F4007004908869F0
:1019900040F0040088618869694600F00400049002
:1019A000032000900190134800F042FA134C1248B3
:1019B000C4E900058020C4E9025080002061800055
:1019C00060612020C4E90605204600F0B9F908B19D
:1019D000FFF7B0FD3462002211461220666200F06B
:1019E00081FB122000F070FB06B070BD00240140A6
:1019F00000100240000801400800024004080020D6
:101A00002DE9F047894604463B4900683B4F0E1DCF
:101A10009046884201D0B84207D1306810F4702F48
:101A200003D001252846BDE8F08794F8240001285A
:101A30000CD0012084F824002046FFF71FFD05008C
:101A40004FF0000004D084F82400EBE70220EAE71E
:101A5000A16A40F60162914341F48071A16221685C
:101A6000B94218D1326812F4702F14D0A16A41F42F
:101A70008011A1623168490505D5A16A21F40051A0
:101A800041F48051A162A16AC9040AD5E16A21F03A
:101A90000601E16206E0A26A22F48012A2624968AD
:101AA000E9E7E06284F82400216A15488862216A27
:101AB0001448C862216A1448086321686FF0020064
:101AC00008602068816841F4807181602168434624
:101AD0004A464C31206A00F061F920688168C1F300
:101AE00042410729816803D041F48011816099E760
:101AF00041F4A001FAE70000002401400028014061
:101B00000B140008731400085914000810B590F85D
:101B100021100022022905D00421816380F82020B1
:101B2000012010BD01680B6823F00E030B600168F3
:101B30000B6823F001030B6090F84030C46B012167
:101B400001FA03F3636080F8211080F8202010462A
:101B500010BD000010B590F821100024022903D018
:101B60000421816301243DE001680A6822F00E022D
:101B70000A6001680A6822F001020A601A4A0168D4
:101B8000914201D1012121E0174A1432914201D141
:101B900010211BE0144A2832914201D1891515E029
:101BA000114A3C32914201D189140FE00E4A503261
:101BB000914202D14FF4803108E00B4A64329142E5
:101BC00002D14FF4801101E04FF08071064A083ACB
:101BD0005160012180F82110002180F82010416B14
:101BE00001B18847204610BD080002402DE9F05F92
:101BF000C16B0C6801680B68D0F840C0042202FA7F
:101C00000CF2494DDFF824A1494E4A4FDFF828B1C4
:101C1000DFF828E122422CD05A072AD50A6892061A
:101C200003D40A6822F004020A600168A94201D1C3
:101C3000042219E0514501D1402215E0B14202D100
:101C40004FF4806210E0B94202D14FF480420BE0C1
:101C5000594502D14FF4802206E0714502D14FF47C
:101C6000800201E04FF080622F4908394A60C16A62
:101C70003BE04FF0020808FA0CF818EA040F4FF0A6
:101C800000094FF0010235D05FEA837832D50B6846
:101C90009B0605D40B6823F00A030B6080F8212013
:101CA0000168A94201D1022219E0514501D1202247
:101CB00015E0B14202D14FF4007210E0B94202D1F6
:101CC0004FF400520BE0594502D14FF4003206E0C8
:101CD000714502D14FF4001201E04FF00072124939
:101CE00008394A6080F82090816A00291AD0BDE83E
:101CF000F05F0847082505FA0CF5254212D01B07AE
:101D000010D50B6823F00E030B6090F84010C36BE6
:101D100002FA01F15960826380F8212080F8209056
:101D2000016BE2E7BDE8F09F080002401C000240A2
:101D30003000024044000240580002406C00024063
:101D400030B528B308C8134914221944B1FBF2F185
:101D50008900C16310498163022141771A6843F603
:101D6000F0718A43D0E900142143D0E902452C43A5
:101D70002143046921434469214384692143114378
:101D8000196000214163012242770177084630BD86
:101D9000012030BDF8FFFDBF0000024070B50446D1
:101DA00090F82000002501280CD0012084F82000A4
:101DB00094F821600020012E06D084F8200002252E
:101DC000284670BD022070BD022684F82160A06301
:101DD0002068066826F0010606602046FFF794FB9F
:101DE000E06A00282068016802D041F00E0106E098
:101DF00021F0040101602068016841F00A010160DE
:101E00002068016841F001010160D9E770B504461E
:101E100000F004F90546601C02D004480078044430
:101E200000F0FCF8401BA042FAD370BD380000203F
:101E30002DE9F84FDFF8B891002409F1040A0AF1FE
:101E4000040B23460F270BF1040EC9E00125A54022
:101E50002A40AA427DD1674ED1F804C0ACEB0608F7
:101E6000B44532D014DCBCF1030F3AD009DCBCF12C
:101E7000000F2AD0BCF1010F1CD0BCF1020F31D1F0
:101E80001DE0BCF1110F17D0BCF1120F2AD119E0DF
:101E9000B8F5881F19D006DCB8F5803F15D0B8F525
:101EA000801F1FD111E0B8F5001F0ED0B8F5041F38
:101EB00018D10AE0CB6815E0CB681B1D12E0CB6897
:101EC00008330FE0CB680C330CE08B682BB1012B8F
:101ED0004FF0080303D0456104E0042302E00561EC
:101EE00000E00023FF2A01D8064601E000F10406C5
:101EF0004FEA840501D9A5F12005D6F8008007FA3C
:101F000005FC28EA0C0803FA05F548EA0508C6F8B6
:101F100000804D68ED0062D5374DAE6946F0010690
:101F2000AE61AD6924F0030605F001050095334D5F
:101F300006EB050CDCF80850A607360F07FA06F882
:101F400025EA0805DFF8B880404503D14FF00008C6
:101F500017E044E0DFF8AC80404502D14FF00108C3
:101F60000FE0DFF8A480404502D14FF0020808E0FE
:101F7000DFF89880404502D14FF0030801E04FF0B0
:101F8000040808FA06F848EA0508CCF808804D6805
:101F9000D9F80060ED034D4601D5164300E09643A5
:101FA0002E604D68DAF80060AD03554601D5164342
:101FB00000E096432E604D68DBF80060ED025D4660
:101FC00001D5164300E096432E604D68DEF80060B0
:101FD000AD02754601D5164300E096432E60641CA1
:101FE0000D682A46E5407FF431AFBDE8F88F000068
:101FF00000040140000011100010024000000140E8
:1020000000080140000C0140001001400014014094
:102010000AB1016170470904FBE7000001488068CC
:10202000704700003800002002488168027811449F
:102030008160704738000020074810B5016841F002
:1020400010010160032000F06DF80F2000F006F889
:1020500000F024F8002010BD0020024070B50D4DA6
:1020600004464FF47A712878B1FBF0F00A49096808
:10207000B1FBF0F000F0BEFB48B9102C07D20022F3
:102080002146501E00F02EF800206C6070BD01202B
:1020900070BD00003800002044000020094808B549
:1020A000816941F001018161816901F001010091C3
:1020B000C16941F08051C161C06900F08050009059
:1020C00008BD000000100240002809DB00F01F02DC
:1020D000012191404009800000F1E020C0F800118A
:1020E00070470000F0B40E4B1B680C46C3F302238C
:1020F000C3F10705042D00D90425191D072901D2B4
:10210000002300E0DB1E012606FA05F1491E2140EE
:1021100099409E40761E16403143F0BC01F0BFBB93
:102120000CED00E0064900F0070208684FF6FF03D7
:10213000184040EA0220034A10430860704700003C
:102140000CED00E00000FA0510B529A401461DCCF5
:1021500086B08DE81D002AA02A4C0068049000205B
:10216000012923D002293AD010291DD161682268A3
:10217000D20119D5C1F38342C9031DF8020009D564
:10218000616804AAC1F34041515C1F4AB2FBF1F1FE
:10219000484301E01D4948436168490204D44000B6
:1021A0005FF00301B0FBF1F006B010BD226AC2F38C
:1021B0000121012903D1920701D5C803F4E70229BF
:1021C00005D1626A920702D549F64040ECE703293F
:1021D000EAD121688903E7D54FF22440E4E700F013
:1021E00033F96168C1F38131491C4900DAE7000025
:1021F00002030405060708090A0B0C0D0E0F101048
:10220000010200000010024000127A0000093D00A7
:102210002DE9F84305460078354CC00754D0E069F5
:102220000026C00008D4E06940F08050E061E06919
:10223000012600F0805000902E480168C90512D494
:102240000168804641F480710160FFF7E7FE0746B0
:1022500005E000BFFFF7E2FEC01B642823D8D8F8D2
:102260000000C005F6D5206A10F4407021D0A9887E
:1022700001F4407181421CD0206A1F49012220F4E0
:1022800040700A6000220A602062C00711D0FFF788
:10229000C5FE074641F2883808E000BFFFF7BEFEE2
:1022A000C11B414502D90320BDE8F883206A80079D
:1022B000F4D5206A696820F44070084320621EB19A
:1022C000E06920F08050E0612878800705D56068DB
:1022D000A96820F44040084360602878C00605D50E
:1022E0006068E96820F48000084360600020DBE754
:1022F0000010024000700040400442422DE9F047C7
:102300000F46050061D0434E306800F00700B84228
:1023100009D2306820F0070038433060306800F0A0
:102320000700B84251D128683B4C810712D54007BD
:1023300003D5606840F4E06060602878000703D54A
:10234000606840F4605060606068A96820F0F00048
:10235000084360602878C00728D06868012810D03A
:102360002168022810D0890700292EDA616821F03F
:10237000030101436160FFF751FE804641F2883955
:102380000DE021688903EFE78901EDE7FFF746FEDD
:10239000A0EB0801494502D90320BDE8F087606839
:1023A000696800F00C00B0EB810FEFD1306800F0ED
:1023B0000700B8420BD9306820F00700384330607E
:1023C000306800F00700B84201D00120E5E7287826
:1023D000400705D56068E96820F4E0600843606064
:1023E0002878000706D56068296920F4605040EA23
:1023F000C100606000F038F86168084AC1F3031159
:10240000515CC8400649086006480068FFF726FE90
:102410000020C2E700200240001002401E4C0008CD
:10242000440000203C000020044805490068496839
:10243000044AC1F30221515CC840704744000020A7
:10244000001002402E4C0008044805490068496805
:10245000044AC1F3C221515CC840704744000020C7
:10246000001002402E4C000812A185B00FC98DE863
:102470000F0014A0144A006804905168134801F03A
:102480000C03042B10D0082B0ED1C1F38343C903D6
:102490001DF803000AD5516804AAC1F34041515CFC
:1024A0000A4A5043B0FBF1F005B070470849484371
:1024B000FAE7000002030405060708090A0B0C0DE1
:1024C0000E0F1010010200000010024000127A00EE
:1024D00000093D002DE9F84F040070D02078C04D70
:1024E000C00749D06868C0F38100012807D0686838
:1024F000C0F38100022809D16868C00306D52868A6
:10250000800339D560680028E7D035E06068B0F511
:10251000803F0BD010B1B0F5A02F11D0286820F467
:1025200080302860286820F4802002E0286840F489
:1025300080302860606890B1FFF770FD06460AE0C1
:10254000286840F480202860F0E700BFFFF766FDB0
:10255000801B642873D828688003F7D50CE0FFF748
:102560005DFD064605E000BFFFF758FD801B6428AF
:10257000F0D828688003F7D420789A4E80074FF06F
:1025800001094FF0000839D5686810F00C0F07D02A
:102590006868C0F38100022809D16868C00306D4C6
:1025A0002868800714D52069012808D110E0206927
:1025B000B0B1C6F80090FFF731FD074605E00AE12B
:1025C000FFF72CFDC01B0228C4D828688007F7D568
:1025D0002868616920F0F80040EAC10028600DE039
:1025E000C6F80080FFF71AFD074604E0FFF716FD66
:1025F000C01B022823D828688007F7D4207800075A
:102600002CD57948A169D9B1C0F80090FFF706FD33
:10261000074604E0FFF702FDC01B02280FD8686AD6
:102620008007F7D571484FF4FA510068B0FBF1F01C
:10263000009000BF0098411E0091FAD20EE080E0A9
:10264000C0F80080FFF7EAFC074604E0FFF7E6FC6D
:10265000C01B022875D8686A8007F7D42078400725
:1026600060D5E8690027C00008D4E86940F08050D0
:10267000E861E869012700F0805000905C4801683B
:10268000C90513D40168834641F480710160FFF7E6
:10269000C5FC824606E000BFFFF7C0FCA0EB0A00C5
:1026A00064284ED8DBF80000C005F5D5E0680128A5
:1026B0000AD008B1052813D0286A20F0010028624A
:1026C000286A20F0040002E0286A40F00100286235
:1026D000E06841F2883B98B1FFF7A0FC82460BE02E
:1026E000286A40F004002862EEE700BFFFF796FC7E
:1026F000A0EB0A0159455AD8286A8007F6D50CE0A4
:10270000FFF78CFC824605E0FFF788FCA0EB0A018E
:1027100059454CD8286A8007F6D41FB1E86920F0E3
:102720008050E861E06988B36968C1F381010229DA
:1027300044D00228C6F8608004D0FFF76FFC04463E
:1027400038E034E0FFF76AFC074604E0FFF766FC78
:10275000C01B02282BD828688001F7D4206AB0F566
:10276000803F05D16868A16820F4003008436860A4
:10277000D4E908010843696821F4741108436860CA
:10278000C6F86090FFF74AFC044606E025E000BF6B
:10279000FFF744FC001B022809D828688001F7D500
:1027A0001BE000BFFFF73AFC001B022802D9032000
:1027B000BDE8F88F28688001F4D40EE00128F7D036
:1027C0006868226A00F48031914204D1616A00F4A1
:1027D0007010884201D00120EAE70020E8E70000FD
:1027E00000100240000042428004424244000020A7
:1027F0000070004010B5401EB0F1807F01D3012071
:1028000010BD4FF0E02460610F21601701F047F820
:102810000020A06107202061002010BD7047704794
:1028200070B590F83C20012A26D0012480F83C4065
:10283000022280F83D2003685A689D6822F07006E5
:102840000A6832435A600D4B02689A4208D0B2F1CE
:10285000804F05D00A4B9A4202D00A4B9A4204D1CB
:10286000496825F080031943916080F83D400021BC
:1028700080F83C10084670BD022070BD002C01405D
:10288000000400400008004010B5040003D094F894
:102890003D0010B107E0012010BD002084F83C008D
:1028A000204600F01FF8022084F83D00211D20681A
:1028B00000F04AFE012084F8460084F83E0084F8C7
:1028C0003F0084F8400084F8410084F8420084F816
:1028D000430084F8440084F8450084F83D0000205B
:1028E00010BD000008B500680B49884212D10B48A2
:1028F000C16941F00201C161C069002200F002001B
:10290000009011461D20FFF7EDFBBDE808401D209B
:10291000FFF7DABB08BD00000004004000100240D1
:1029200090F83D10012901D001207047022180F864
:102930003D1000680B49884208D0B0F1804F05D0A7
:102940000949884202D00949884204D1816801F0CE
:102950000701062903D0016841F001010160002050
:1029600070470000002C01400004004000080040B7
:1029700070B5044690F83C00012817D0012584F872
:102980003C50022084F83D002068826822F07702E3
:1029900022F47F4282600868502830D00DDC202865
:1029A0004DD005DC98B310283BD148E0022070BD23
:1029B000302844D0402834D139E0602828D070280D
:1029C00006D0B0F5805F2CD0B0F5005F29D10AE0C9
:1029D000CB68D1E90121206800F0ECFD2068816816
:1029E00041F0770109E0CB68D1E90121206800F0CE
:1029F000E1FD2068816841F48041816011E0CA688E
:102A00004968206800F0E8FD5021206807E016E0E2
:102A1000CA684968206800F0F0FD6021206800F075
:102A2000D3FD84F83D50002084F83C0070BDCA6896
:102A30004968206800F0D0FD40212068EFE7226857
:102A400001461046EBE7704770B50446006801691F
:102A50004FF00005C943890715D4C168C9438907E8
:102A600011D4E91E01610120207720688069800768
:102A7000204602D0FFF7E7FF04E000F098F8204678
:102A800000F096F8257720680169C943490717D4F3
:102A9000C168C943490713D46FF0040101610220E2
:102AA00020772068806910F4407F204602D0FFF72D
:102AB000CAFF04E000F07BF8204600F079F82577A3
:102AC00020680169C943090716D4C168C9430907C9
:102AD00012D46FF008010161042020772068C069DA
:102AE0008007204602D0FFF7AEFF04E000F05FF859
:102AF000204600F05DF8257720680169C943C906C2
:102B000017D4C168C943C90613D46FF0100101611D
:102B1000082020772068C06910F4407F204602D04A
:102B2000FFF791FF04E000F042F8204600F040F883
:102B3000257720680169C943C90708D1C168C9431D
:102B4000C90704D1891E0161204600F032F82068CF
:102B50000169C943090609D4C168C943090605D4F6
:102B60006FF0800101612046FFF758FE206801697F
:102B7000C943490609D4C168C943490605D46FF061
:102B800040010161204600F015F820680169C94341
:102B900089060BD4C168C943890607D46FF02001A8
:102BA00001612046BDE87040FFF739BE70BD704737
:102BB000704770477047704770470000F8B502686B
:102BC00004461068D168536910F00F0F4FF00005EC
:102BD00053D003F0010601F4907737435FD0C2076A
:102BE00005D0CA0503D5226C42F0010222644207D7
:102BF00005D5DA0703D0226C42F002022264820774
:102C000005D5DA0703D0226C42F0040222640207E1
:102C100007D501F02002324303D0226C42F00802B3
:102C20002264226C002A34D0800604D5880602D59E
:102C3000204600F014FD20684069216CC0F380102C
:102C4000090700D430B3204600F0F1FC2068416948
:102C500049061BD5416921F040014161A06BA8B133
:102C600058494163A06BFEF775FF002811D0A06B97
:102C7000416B01B0BDE8F040084783060FD58B06D5
:102C80000DD52046BDE8F84000F0E9BC2046FFF72E
:102C900093FFF8BD2046FFF78FFF2564F8BD266B34
:102CA0002023012E52D1C60650D5CE064ED510682F
:102CB00050680090506940062AD5A16B08684068AA
:102CC0000004000CEAD0A68D8642E7D9E085886929
:102CD000202818D0D06820F48070D0602068416926
:102CE00021F0010141612068416921F04001416109
:102CF00084F83E3025632068C16821F01001C1606E
:102D0000A06BFEF703FFA08DE18D401A81B219E0A0
:102D1000A08DE18D401A81B2E08D0028BED000293F
:102D2000BCD0D06820F49070D0602068426922F056
:102D30000102426184F83E3025632068C26822F0B7
:102D40001002C2602046FFF736FFF8BD05062BD5FE
:102D50000D0629D594F83D002128F6D1A068B0F5DC
:102D6000805F01D12069B0B1206A411C21622168D5
:102D700000784860E08C401E0004000CE084E4D140
:102D80002068C16821F08001C1602068C16841F0FD
:102D90004001C160F8BD206A0088C0F3080050609F
:102DA000206A801C2062E5E74006F3D54806F1D58D
:102DB000D168204621F04001D16084F83D3000F018
:102DC00018F9F8BD1F36000870B5040004D094F857
:102DD0003D00002510B106E0012070BD84F83C5094
:102DE000204600F023F8242084F83D002068C168C4
:102DF00021F40051C160204600F08CFC206801697C
:102E000021F4904101612068416921F02A0141616A
:102E10002068C16841F40051C1602564202084F815
:102E20003D0084F83E00002070BD000030B585B044
:102E30000024009401940294039400681849884285
:102E40002CD11848816941F480418161816901F484
:102E500080410491816941F0040181618069124DD2
:102E600000F0040004904FF40070009002200190E4
:102E70000320039069462846FEF7DAFF2815CDE9BE
:102E80000004694628460294FEF7D2FF002211464C
:102E90002520FFF727F92520FFF716F905B030BDEB
:102EA00000380140001002400008014090F83E3018
:102EB000202B0ED159B152B190F83C30012B08D0E3
:102EC000012380F83C300023036300F07FBC012025
:102ED0007047022070470000164810B50178FF299E
:102EE0000FD3002101704FF480711348FDF7B1FA40
:102EF00010494FF6FF731A221C31104800F020F8D9
:102F000010E00D4A43795354491CC9B20170114471
:102F100011F8012C0A2A05D111F8021C0D2901D142
:102F20000121417003490122BDE81040491D0348B9
:102F3000FFF7BCBF0000002048040020C0070020AD
:102F40002DE9F843044690F83D001F4616460D460D
:102F500020284CD1C5B1BEB194F83C00012846D020
:102F6000012084F83C004FF00008C4F84080212084
:102F700084F83D00FFF752F8A6848146E684A068F5
:102F8000B0F5805F03D004E00120BDE8F88320693C
:102F900028B12E465FF0000584F83C800EE0002644
:102FA000FAE78021204600F02CFCA0B9AEB116F85B
:102FB000010B21684860E08C401EE084E08C4B46A9
:102FC0004FF0000200970028EBD14FF0400120465F
:102FD00000F017FC30B10320D7E735F8020BC0F33F
:102FE0000800E6E7202084F83D000020CDE702201D
:102FF000CBE77047FEE700002DE9F0470025114CB4
:1030000006464FF4000A4FF040084FF4800980272D
:10301000300601D5276001E0C4F800A0C4F80080A4
:1030200000F014F97006060EC4F8009000F00EF9D6
:10303000072D00D127606D1CEDB2082DE8D3BDE847
:10304000F0870000100C014010B5084C40202060B3
:103050008020206000F0FAF84FF40000206000F0BB
:10306000F5F84FF48000206010BD0000100C014006
:1030700010B5054C4FF4000020604020206000F0A7
:10308000E5F88020206010BD100C014010B5094CFF
:10309000802020604020206000F0D8F805480838E3
:1030A0000068000601D5012000E000204FF48001F7
:1030B000216010BD100C0140FEB50024154800949D
:1030C00001941349029401608915816004730475A9
:1030D00002250561C9024460C161FEF7B3FB08B176
:1030E00072B6FEE70126CDE900466946094802941A
:1030F000FEF790FA08B172B6FEE7CDE900656946C1
:103100000448FEF787FA002801D072B6FEE7FEBD3C
:103110000024014048070020F0B585B00024244871
:103120000094019402940394816941F0100181613B
:10313000816901F010010491816941F020018161F0
:10314000816901F020010491816941F004018161EC
:10315000816901F004010491816941F008018161F4
:103160008069012200F00800124E550304902946A0
:103170003046FEF74DFF104F0022C0213846FEF7C3
:1031800047FF00950125CDE90154022469463046E8
:103190000394FEF74DFEC020009011200394CDE96A
:1031A000010569463846FEF743FE05B0F0BD000054
:1031B0000010024000100140000C014010B586B024
:1031C0000024184800940194029403940494144930
:1031D0000594016040F25721C0E901143B21C0E988
:1031E000031480218161FFF74FFB08B172B6FEE73F
:1031F0004FF48050009069460A48FFF7B9FB08B1C8
:1032000072B6FEE72020CDE9040404A90548FFF7C3
:1032100007FB002801D072B6FEE706B010BD000023
:103220000004004078070020FEE7FEE770B50024A8
:103230000025002000F096F86D1CEDB2802DF8D32B
:10324000641CE4B2082CF3D370BD000008B5142050
:103250000021ADF8001000BFBDF80010491CADF80A
:103260000010401E0004000CF6D108BD10B5AE20C1
:1032700000F05CF8A82000F059F83F2000F056F864
:10328000D32000F053F8002000F050F8A12000F007
:103290004DF8C82000F04AF8DA2000F047F8122074
:1032A00000F044F8402000F041F8202000F03EF803
:1032B000002000F03BF8812000F038F87F2000F07B
:1032C00035F8A42000F032F8A62000F02FF8DB201B
:1032D00000F02CF8302000F029F8D92000F026F872
:1032E000F12000F023F8D52000F020F8802000F035
:1032F0001DF88D2000F01AF8142000F017F82E2089
:1033000000F014F8FFF792FFAF2000F00FF8FFF77E
:103310009BFE7820FFF770FEFFF7B8FE0446FFF72C
:10332000A7FE0CB1002010BD012010BD10B5044651
:10333000FFF78AFE7820FFF75FFEFFF7A7FE58B978
:103340000020FFF759FEFFF7A1FE28B92046FFF73E
:1033500053FEFFF79BFE08B1002010BDFFF788FE6B
:10336000012010BD10B50446FFF76EFE7820FFF770
:1033700043FEFFF78BFE58B94020FFF73DFEFFF7F5
:1033800085FE28B92046FFF737FEFFF77FFE08B11C
:10339000002010BDFFF76CFE012010BD10B50446E3
:1033A000B031C8B2FFF7C2FF102040EA1410FFF797
:1033B000BDFF04F00F00BDE81040FFF7B7BF0000ED
:1033C0002DE9F0470F46089E8146202A01D3203A76
:1033D00000E01032D4B2B9F17F0F03D900208F1C66
:1033E0008146FFB2102B394614D0FFF7D7FF1E4F8E
:1033F000002504EB440405EB4400012E385C00D0AA
:10340000C043C0B2FFF7AEFF6D1CEDB2062DF2D384
:10341000BDE8F087FFF7C2FFDFF85080002505EB1D
:103420000411012E18F8010000D0C043C0B2FFF70C
:1034300099FF6D1CEDB2082DF1D37F1CF9B24846FF
:10344000FFF7ACFF0025474605EB04103844012E7A
:10345000007A00D0C043C0B2FFF784FF6D1CEDB20C
:10346000082DF1D3D4E70000064400082E460008DA
:103470002DE9F843994617460E4604460025DDF827
:10348000208013E04B4631462046CDF80080FFF700
:1034900097FF0834E4B2782C06D90024B9F1100F54
:1034A00009D001203044C6B26D1CEDB27A5D002A0D
:1034B000E8D1BDE8F8830220F4E770477047FEF7D3
:1034C000B3BD30B593B028216846FCF7C2FF142184
:1034D0000AA8FCF7BEFF002501200F951095119555
:1034E000010412958DE8230004904FF4E010CDE91B
:1034F0000810022407946846FEF7ECFF08B172B684
:10350000FEE70F20CDE90A0480200C90C000CDE931
:103510000D0502210AA8FEF7F1FE08B172B6FEE71A
:103520004FF4804011900F940FA8FEF771FE002811
:1035300001D072B6FEE713B030BD70470148FFF707
:1035400083BA000078070020F0B50268164B174CCC
:10355000174D4FF08047984205D0B84203D0A042A3
:1035600001D0A84203D122F070064A683243984243
:1035700005D0B84203D0A04201D0A84203D122F422
:103580004074CA6822434C6922F0800222430260E0
:103590008A68C2620A688262984201D1096901633D
:1035A00001214161F0BD0000002C014000040040F9
:1035B0000008004010B5846842EA032224F47F44E6
:1035C0000A432243826010BD826822F070020A43DF
:1035D00042F007018160704710B5036A046A24F065
:1035E00001040462846924F0F00444EA021423F024
:1035F0000A020A438461026210BD10B5036A23F017
:10360000100303628369046A23F4704343EA0232BD
:1036100024F0A00343EA01118261016210BD10B5DC
:10362000406A0021C185C184FFF7C6FA10BD016858
:10363000CA6822F49072CA6001684A6922F00102E5
:103640004A61016B012904D10168CA6822F01002A5
:10365000CA60202180F83E1000210163704708B540
:1036600090F83E10222901D0022008BD82684FF454
:1036700080539A4201D1016921B1816A9A421BD0DB
:103680004AB10AE00268816A5268C2F308020A80FD
:10369000816A891C08E0026972B10268526802F00E
:1036A0007F020A70816A491C8162C18D491E09042A
:1036B000090CC18503D019E002685268F1E701687E
:1036C000CA6822F02002CA600168CA6822F48072C7
:1036D000CA6001684A6922F001024A61202180F82B
:1036E0003E10016B012903D0FFF7F6FB002008BD57
:1036F000002101630168CA6822F01002CA600168F3
:103700000A68D20602D50A6849680091818DFFF7E0
:1037100052FAEBE770B5044600680169E26821F4EB
:103720004051114301612169A06808436169084360
:103730002168CA6841F20C639A430243CA60206858
:103740004169A26921F44071114341611E49206819
:10375000884202D1FEF778FE01E0FEF765FE00EB3D
:10376000C00101EB0012606864218000B2FBF0F33D
:10377000B3FBF1F36FF018067343B2FBF0F5B2FB45
:10378000F0F605EB8305322303EB0515B5FBF1F5E8
:10379000B6FBF1F605F0F00505EB0615B2FBF0F609
:1037A000B2FBF0F0B0FBF1F06FF01802504306EB03
:1037B000800003EB0010B0FBF1F0216800F00F0077
:1037C0002844886070BD0000003801408162828515
:1037D000C28500210164222280F83E2080F83C103E
:1037E0000168CA6842F48072CA6001684A6942F09E
:1037F00001024A610068C16841F02001C1600020F7
:1038000070472DE9F041984617460E460446069D3E
:103810001DE0681C1BD02DB1FEF700FCA0EB0800DA
:10382000A84214D92068C16821F4D071C160206811
:10383000416921F001014161202084F83D0084F8B4
:103840003E00002084F83C000320BDE8F0812068A1
:10385000006836EA000004D00020B842D9D0002029
:10386000F3E70120F9E700000148FFF7A7B90000DE
:10387000C0070020FEE7490050EAC12018BF04201D
:103880004A0D18BF40F0010040F2FF72B2EB515FE9
:1038900008BF40F00200012808BF05207047090753
:1038A000090E002804DB00F1E02080F800147047C6
:1038B00000F00F0000F1E02080F8141D7047303850
:1038C0000A2801D201207047002070471CB5FEF77E
:1038D000B3FBFFF7F6FDFFF71FFC9D48416941F080
:1038E000010141614069002200F001000090114691
:1038F0000B20FEF7F7FB0B20FEF7E6FBFFF7DCFBE8
:10390000FFF75CFC944893490C2201604FF4E131CD
:10391000416000218160C160C0E904128161C16120
:10392000FFF752FA08B172B6FEE701228B498A48C6
:10393000FFF7BCFA88487838FDF7FEFD00224FF407
:1039400000518748FEF764FB83484838FEF7E8FFDC
:1039500084494FF4807201F5E060FEF751F84FF4AE
:103960007A70FEF753FAFFF781FCDFF8FCB14FF0F5
:1039700066396FF00B0A794C641F607838B37BA10D
:103980007C48FCF735FD38B164230F227AA17248D8
:10399000FFF7D6FA0120A0707BA17648FCF728FD3E
:1039A00008B10020A0707AA17248FCF721FD30B167
:1039B000012251036A48FEF72BFB0120E070002032
:1039C000607020704FF480716A48FCF742FD2079E6
:1039D0000028D0D061480025401FDFF88881C468E6
:1039E00058F8250000F0F6F94A465B4600F006FA62
:1039F000524600F09CFC07460E46204600F0E6FBCF
:103A00003A46334600F036F900F002F9AD1C0446A0
:103A1000FF2DE5DD514E6FF00601761F00F0B5FC7D
:103A20000746F06000F0D2FB04460D4600225A4BD8
:103A300000F0E4F922462B4600F0E0F94FF0FF32A7
:103A400000F075FC00F0E4F870615448874207DC30
:103A500000224FF400514248FEF7DAFA0020F070DD
:103A60003E480125401F046958F8250000F0B2F9CE
:103A70004A465B4600F0C2F9524600F058FC064642
:103A80000F46204600F0A2FB32463B4600F0F2F81B
:103A900000F0BEF8AD1C0446FF2DE5DD2F4E6FF0A3
:103AA0000601761F00F071FC306100F08FFB0546C7
:103AB0000C463B4A3B4B00F0A1F907468846284696
:103AC0002146394A394B00F099F92A46234600F03D
:103AD00095F93A46434600F08FFA354A354B00F0E7
:103AE000C9F800F095F8B061F07808B1B06901E06C
:103AF0000020B06100F06AFB04460D46706900F0DA
:103B000065FB02460B462CA13248CDE90045FCF787
:103B10006BFBFFF78BFB01200021009010232D4A47
:103B20000846FFF7A5FCB07878B12A4A2AA1A2F589
:103B30008070FCF759FB2A48FCF76CFC82B24FF608
:103B4000FF7327490448FFF7FBF90020307112E7A3
:103B50000010024000380140C0070020050000208E
:103B6000001001404800002066660A404C494E4B58
:103B70005F4944004804002041542B42545F545292
:103B8000414E533D310D0A00444953434F4E4E00C0
:103B9000737461727400000000404D406666A63F79
:103BA000A1F31ABB44F5863FE2E995B20C71C43F1C
:103BB000894160E5D022C33F456E657267793A203E
:103BC000252E32664A2020506F7765723A20252EC6
:103BD000326657004806002025730D0A00000000D9
:103BE0004805002010B500290AD00878002807D021
:103BF00005487844FCF7C8FF002801D0002010BD1C
:103C00000248784410BD00000A11000002110000B3
:103C100021F00042A2F16052B2F5801F01F0004392
:103C200028BFD2F17F6C0BD95FEA001C43EAC202C5
:103C300042EB507018BF704728BF20F0010070475A
:103C4000B2F5801FBCBF184670474FEA410C1CF507
:103C5000001F02D2084600F031BB70B500F078F9C1
:103C600000000089FFF7F6BF4FF00040A0F580008C
:103C70007047000010B591EA030F48BF83F000437E
:103C800000F1C281841A71EB030C05D2121943EBC7
:103C90000C03001B61EB0C01DFF824E14FEA115427
:103CA000A4EB135C1EEA430F18BF9EEA445F73D077
:103CB00023EA0E03DCF1200E21EA045143F48013C1
:103CC00032D322FA0CFE10EB0E0023FA0CFE41EB6D
:103CD0000E01CCF1200E03FA0EFE10EB0E0051F196
:103CE0000001B1F5801FCCF1200E32D201EB04515E
:103CF00012FA0EF2BDE8104058BF7047401C38BFA2
:103D00005FEA420218BF7047002814BF20F001008C
:103D100041F100014FEA410313F5001F38BF70471E
:103D2000A1F1C04100F062B9012A43EB0302ACF1FA
:103D3000200CDCF11F0E32BF4FF0000E23FA0CF303
:103D400010EB030041EB0451B4EB115FD0D0A1EBB9
:103D5000045101F5801149085FEA300001EB04517C
:103D60000ED350F1000038BF12FA0EFE08D1BDE8A4
:103D70001040C9E7401C38BF5FEA4202CAD1C3E71E
:103D8000BDE810404FEA410313F5001F38BF7047EC
:103D9000A1F1C04100F02AB99EEA445F08D011EABF
:103DA0005E0FBDE8104004BF01F0004100207047E5
:103DB000BDE8104070B500F0CBF800BF64FBBE3E1C
:103DC0000000E0FF02494FF0000000F07EBA00BFA3
:103DD0000000F87FB0FA80F310FA03F10AD0C3F1C3
:103DE0001D0303F580634FEA41504FEA035202EB93
:103DF000D12170474FF0000070470000DFF848C144
:103E000070B51CEA111E1EBF1CEA13159EEA0C0FAA
:103E100095EA0C0F00F06F8081EA030423EA4C134B
:103E20004EEAD47E21EA4C1141F4801143F4801310
:103E3000AE44A1FB024CA0FB0365AEF17F7E3619B8
:103E400055EB0C05A1FB034C4CF10003A0FB021C3D
:103E500016EB0C06654153F10003094218BF46F00A
:103E6000010613F4007F0BD14FEA03314FEA05300E
:103E7000340341EA155140EA16506FF003020AE09C
:103E80004FEAC3214FEAC520F40241EA555140EA06
:103E900056506FF0020202EB2E4201EB025585EA0A
:103EA000CE710AD05FEA440C18BF24F0004450F1F0
:103EB000000041F1000120EAD47040F2FE7C62452E
:103EC00000D270BDA84214BF4FF080444FF0404470
:103ED000002E08BF0024BEF1806FA8BFA1F1C04131
:103EE000BDE8704080F282804FF0000001F1C041D7
:103EF00001F0004170479EEA0C0F0CEA131518BF41
:103F000095EA0C0F06D04FF0000081EA030E0EF088
:103F1000004170BD00F01CF88900013E00F007B8B8
:103F200000F009B84FEA430C5FEA5C5C08D081EA14
:103F3000030100F05BB84FEA410C5FEA5C5CF6D12C
:103F40004FF00000014970470000FF070000F87FB4
:103F50000EF1020E2EF0030E5EF8046B364205D40D
:103F6000012A43EB030515F5001F12D8012841EB88
:103F7000010C1CF5001F0CD80ED14FEAD17C15F5B1
:103F8000001F0CEB4C0C0CF1020C08BF4CEBD37C6B
:103F900004E04FF0080C01E04FEAD37C0CEB4C0539
:103FA00026FA05F606F00706B6F1040C06D20EEB6B
:103FB000860CBDE870404CF0010C6047DFE80CF067
:103FC000090B02024FF000414FF00000A1F5002163
:103FD00070BD19461046012851EB010418BFD4F5F5
:103FE000001484BF002001F0004170BD0808A0F556
:103FF00000114FEA3101704710B591EA030F48BF35
:1040000083F000433FF53EAE841A71EB030C07D2F8
:1040100012198CF0004C43EB0C03001B61EB0C01FC
:10402000DFF8A4E14FEA1154A4EB135C1EEA430F3E
:1040300018BF9EEA445F00F0B08023EA6E0352424C
:1040400021EA0451C3EB6E0338BF5B1EDCF1200E86
:1040500025D322FA0CFE10EB0E0043FA0CFE41EBC6
:104060000E01CCF1200E03FA0EFE10EB0E0051F102
:104070000001CCF1200E29D412FA0EF201EB04510A
:10408000BDE8104058BF7047401C1CBFB2F1004F44
:10409000704700280CBF491C20F00100704712EB4C
:1040A000020E43EB030218BF4FF0010E4EEA42022C
:1040B000ACF1200CDCF11E0E54D943FA0CFE10EBCF
:1040C0000E0051F1FF31CCF11E0ED5D50EF1010ECF
:1040D00012FA0EFE404141EB010101EB445C5FEA44
:1040E0005C5C10D910EBDE7001EB045138BFBEF1FF
:1040F000004FBDE8104018BF704700280CBF491C96
:1041000020F00100704730D24FEAD42C11F5001195
:1041100024F400641BD0B1FA81F20B3AA41AA41E55
:10412000D2F12003914030FA03F31943904001EBA0
:10413000CC71002C01EB0451BDE81040A8BF7047C2
:1041400001F1C0414FF0000001F000417047B0FAAA
:1041500080F310FA03F100D110BDE41A173C4805B2
:10416000C90AE4E701EB045110BD491001EB045109
:10417000BDE810404FEA300002E04FF00001704708
:104180004A0008BF0042F8D0B2F5001F28BF7047B0
:1041900001F000414FF0000070479EEA445F07D0F5
:1041A00011EA5E0FBDE8104004BF002100207047F7
:1041B000BDE8104070B5FFF7CBFE00BF40DFF63E14
:1041C00083F00041104670470000E0FF43004FEAD3
:1041D000D30C4FEA3C0C43401FBF40070CF1605129
:1041E00013F0FE4F70471CF0006F03D100200CF05D
:1041F000004170470CF0004343EA507010B540EAAC
:10420000CC0000F015F800BF000000924FEA00015A
:10421000FFF7ECBE4FF000414FF00000A1F5002188
:1042200070470000014800F050B800BF0000C07F98
:104230000EF1020E2EF0030E5EF8044B244204D45D
:104240004FEA4102B2F17F4F11D84FEA4003B3F178
:104250007F4F0CD80ED14FEAD07CB2F17F4F0CEBE0
:104260004C0C0CF1020C08BF4CEBD17C04E04FF07D
:10427000080C01E04FEAD17C0CEB4C0324FA03F468
:1042800004F00704B4F1040C06D20EEB840CBDE874
:1042900010404CF0010C6047DFE80CF00708020208
:1042A0004FF00040A0F5800010BD0846420018BF46
:1042B000D2F1807288BF00F0004010BDFF2141EABA
:1042C000D050C0057047FCF7C7B90CF00F03092B9D
:1042D00008BF082000F07F800A2B0BD0082B18BFE6
:1042E000704708BF1CF0400F0AD04FF000004FF09D
:1042F000000170471CF0400F18BF4FF0004070479E
:104300001CF0100F08D020F0704300F07F4242EA0A
:10431000D3014FEA4370704700F0604021F07F42C4
:1043200042EA000201F07F4040EA727070474FF0AD
:10433000FF0C4CF4E06C1CEA11531CBF9CEA030C0C
:104340009445C2BFDA4201EB02517047002B0DD0F9
:10435000BCF1000F0FD0002A01F00041A4BF41F0D2
:10436000E04141F07F614FF00000704701F00041F3
:104370004FF00000704750EA01334FF09B0C18BF1C
:104380004CF0806C7FF41EAD70474FF0FF0212EAD4
:10439000D0521CBF92F0FF038B42C2BFD14200EB50
:1043A000C1507047002A0AD0002B0BD0002900F022
:1043B0000040A4BF40F0FE4040F40000704700F011
:1043C0000040704743024FF00B0C18BF4CF0806C5C
:1043D0007FF428AF70471CF4801F11D01CF4E02F2D
:1043E00003D06FEACC31490070474FF04050EFF3F3
:1043F000008222F0704242EA000282F30088704795
:104400004FF0000070470000000000000000002F87
:10441000000000000700070000147F147F14002430
:104420002A7F2A120062640813230036495522505D
:1044300000000503000000001C2241000000412292
:104440001C000014083E08140008083E080800007C
:1044500000A0600000080808080800006060000074
:10446000002010080402003E5149453E0000427FF2
:104470004000004261514946002141454B3100183E
:1044800014127F10002745454539003C4A49493000
:1044900000017109050300364949493600064949BA
:1044A000291E0000363600000000563600000008C5
:1044B00014224100001414141414000041221408A2
:1044C00000020151090600324959513E007C121187
:1044D000127C007F49494936003E41414122007F1C
:1044E0004141221C007F49494941007F09090901D6
:1044F000003E4149497A007F0808087F0000417F5B
:104500004100002040413F01007F08142241007F0C
:1045100040404040007F020C027F007F0408107F73
:10452000003E4141413E007F09090906003E4151DC
:10453000215E007F09192946004649494931000199
:10454000017F0101003F4040403F001F2040201FED
:10455000003F4038403F00631408146300070870B0
:10456000080700615149454300007F414100005563
:104570002A552A55000041417F000004020102042F
:10458000004040404040000001020400002054541C
:104590005478007F4844443800384444442000386C
:1045A0004444487F00385454541800087E090102DE
:1045B0000018A4A4A47C007F080404780000447DB3
:1045C0004000004080847D00007F102844000000EF
:1045D000417F4000007C04180478007C08040478C3
:1045E00000384444443800FC2424241800182424AF
:1045F00018FC007C080404080048545454200004AB
:104600003F444020003C4040207C001C2040201CB7
:10461000003C4030403C004428102844001CA0A02E
:10462000A07C004464544C4414141414141400006A
:10463000000000000000000000000000000000007A
:1046400000F80000000000000033300000000010FF
:104650000C06100C0600000000000000000040C026
:104660007840C0784000043F04043F040400007018
:1046700088FC08300000001820FF211E0000F00810
:10468000F000E018000000211C031E211E0000F0B5
:104690000888700000001E212324192721101016FD
:1046A0000E000000000000000000000000000000FC
:1046B00000E018040200000000071820400000027B
:1046C0000418E000000000402018070000004040EF
:1046D00080F0804040000202010F01020200000051
:1046E00000F0000000000101011F010101000000B5
:1046F00000000000000080B070000000000000001A
:1047000000000000000000010101010101010000A2
:104710000000000000000030300000000000000039
:10472000000080601804006018060100000000E02E
:1047300010080810E000000F102020100F000010DB
:1047400010F8000000000020203F20200000007032
:10475000080808887000003028242221300000302A
:104760000888884830000018202020110E00000022
:10477000C02010F8000000070424243F240000F8A3
:104780000888880808000019212020110E0000E088
:10479000108888180000000F112020110E0000382A
:1047A0000808C83808000000003F00000000007042
:1047B000880808887000001C222121221C0000E0CB
:1047C00010080810E0000000312222110F00000044
:1047D00000C0C000000000000030300000000000F9
:1047E0000080000000000000806000000000000069
:1047F0008040201008000001020408102000404002
:104800004040404040000404040404040400000844
:1048100010204080000000201008040201000070F9
:1048200048080808F0000000003036010000C030E1
:10483000C828E810E0000718272423140B00000004
:10484000C038E0000000203C23020227382008F88E
:10485000888888700000203F202020110E00C03082
:10486000080808083800071820202010080008F859
:1048700008080810E000203F202020100F0008F852
:104880008888E8081000203F20202320180008F81E
:104890008888E8081000203F200003000000C03096
:1048A00008080838000007182020221E020008F817
:1048B00008000008F808203F210101213F200008DE
:1048C00008F8080800000020203F20200000000019
:1048D0000808F8080800C08080807F00000008F801
:1048E00088C028180800203F20012638200008F83A
:1048F000080000000000203F20202020300008F8A1
:10490000F800F8F80800203F003F003F200008F8BA
:1049100030C00008F808203F200007183F00E010D2
:1049200008080810E0000F10202020100F0008F8E1
:1049300008080808F000203F210101010000E010F4
:1049400008080810E0000F18242438504F0008F819
:10495000888888887000203F2000030C3020007079
:104960008808080838000038202121221C00180877
:1049700008F8080818000000203F2000000008F890
:1049800008000008F808001F202020201F000878D9
:10499000880000C83808000007380E010000F80839
:1049A00000F80008F800033C0700073C0300081863
:1049B00068808068180820302C03032C30200838C9
:1049C000C800C83808000000203F20000000100880
:1049D0000808C838080020382621202018000000C8
:1049E00000FE020202000000007F40404000000C78
:1049F00030C000000000000000010638C0000002C6
:104A00000202FE000000004040407F000000000065
:104A10000402020204000000000000000000000088
:104A20000000000000008080808080808080000284
:104A30000204000000000000000000000000000070
:104A40008080808000000019242222223F2008F864
:104A5000008080000000003F112020110E000000A7
:104A6000008080800000000E112020201100000036
:104A700000808088F800000E112020103F200000E8
:104A8000808080800000001F2222222213000080EC
:104A900080F0888888180020203F20200000000037
:104AA000808080808000006B94949493600008F86C
:104AB000008080800000203F210000203F200080F7
:104AC0009898000000000020203F202000000000F7
:104AD00000809898000000C08080807F000008F867
:104AE000000080808000203F24022D30200000083C
:104AF00008F8000000000020203F202000008080F7
:104B0000808080808000203F20003F20003F808008
:104B1000008080800000203F210000203F20000016
:104B2000808080800000001F202020201F008080C7
:104B300000808000000080FFA12020110E000000F6
:104B4000008080808000000E112020A0FF808080E7
:104B500080008080800020203F2120000100000094
:104B60008080808080000033242424241900008069
:104B700080E0808000000000001F20200000808076
:104B8000000000808000001F202020103F20808037
:104B900080000080808000010E30080601008080C7
:104BA0000080008080800F300C030C300F000080EC
:104BB0008000808080000020312E0E312000808017
:104BC00080000080808080818E7018060100008047
:104BD0008080808080000021302C22213000000065
:104BE0000000807C020200000000003F4040000006
:104BF0000000FF00000000000000FF0000000002B5
:104C0000027C800000000040403F000000000006E1
:104C10000101020204040000000000000000000086
:104C2000000000000000010203040607080900005C
:104C3000000001020304040000080000000000005E
:104C4000000200010000100002400000000000A06F
:104C50000000000005400000000000C80000000047
:104C60000C4000000000409C0000000019400000C3
:104C70000020BCBE0000000034400000BFC91B8EF5
:104C800000000004B5400000504BCFD06607E2CFD3
:104C9000010000006C4100003E8251AADFEEA73403
:104CA00001000000D9420000DCB5A0E23A301F97B5
:104CB000FFFFFFFFB4450000FD25A0C8E9A3C14FD9
:104CC000FFFFFFFFFF3F000000000080000000002A
:104CD000FF3F00000000008000000000184D0008A9
:104CE000000000204800000028010008604D000876
:104CF00048000020600E0000440100081C00000075
:104D000043000000F8FFFFFF0C0000000E00000051
:104D10000F0000002E000000000000000000000056
:104D20000000000000000000000000000000000083
:104D300000000000E695B0E68DAEE6BAA2E587BABF
:104D400028E5A4A7E4BA8E323536290D0A00000002
:104D50000100000010000000000000000024F4002A
:04000005080000ED02
:00000001FF
