:020000041802E0
:10A8680010B5084B08001B6811005A331B78002BE1
:10A8780002D102F01BF810BD012BFCD101F006FB40
:10A88800F9E7C046ACB8000010B5074B08001B68D4
:10A898005A331B78002B02D102F006F810BD012BA9
:10A8A800FCD101F0E9FAF9E7ACB8000037B51D4D65
:10A8B80004002B685A331878002829D103000200B5
:10A8C80001000090013001F0B9FF002301201A00B7
:10A8D800190000F045F9012000F0E0F9012000F02E
:10A8E80003FB012000F0DEFB012000F025FC012025
:10A8F80000F060FD012000F02DFE00220120110073
:10A9080002F06CF9E06852F011F900232B6037BDB2
:10A918000128DAD100210B000A00009101F0E4F9C6
:10A92800D3E7C046ACB80000F0B585B006000A9879
:10A9380003921F00029102F070F90323C41C9C4388
:10A94800A4B290340121200052F066F8254D22006F
:10A958000021286054F048FB2B68002B3BD00A9A52
:10A968005A3311688022080012031040114229D07E
:10A9780000201870020003000100009001F05EFF43
:10A98800041E29D13100039A3B0000F0E9F82000A9
:10A9980000F084F9200000F0A7FA200000F082FB04
:10A9A800200000F0C9FB200000F004FD200000F0AA
:10A9B800D1FD296820000A9A903102F00FF9200091
:10A9C80005B0F0BD01221A70328A00913B0002994D
:10A9D80001F08AF9D4E74B24286852F0A7F800233D
:10A9E8002B60ECE7ACB80000004870477CAA02185E
:10A9F80070B5060008000D000C30022152F00CF86A
:10AA0800041E05D1064B020001001B68012098476F
:10AA1800012320005B42A68065810C30236070BD55
:10AA280008BF000010B50C3851F014FF10BD70B508
:10AA38000C000500C82031F0D5FD002131F0EAFDF9
:10AA480023000C3B1881DD80200051F0D1FE70BD41
:10AA5800014B1B6818887047ACB800000C38008997
:10AA6800704710B5012151F0D7FF10BD10B552F055
:10AA78005DF810BD31A90218B5A8021891A80218EE
:10AA880069A8021870B50C78122C03D101F02AFBC2
:10AA9800002070BD25000C3D012D01D9152CF7D1E2
:10AAA80002F000F8F4E7087810B5192803D003007D
:10AAB8002E3B012B04D8497800F0AAF8002010BDDD
:10AAC8009F28FBD9497800F05DFBF7E770B50400D3
:10AAD8001E000800230AC82B26D11C4B9C4213D900
:10AAE8001B4BE3189BB2012B07D838204042001BB0
:10AAF800C0B201F00BFB002526E032002100022045
:10AB0800144B1B689847F6E70A002000310002F052
:10AB18009DF8051E18D00125A84215D00D4B32000E
:10AB2800210003201B68EDE70B4A002594420BD057
:10AB3800F832944208D00E2BF0D1084B32001B6833
:10AB48000135198851F075FE280070BDC7C800008E
:10AB58003837000008BF0000080D0000ACB800003E
:10AB680010B51400002810D1084A1068C8224A827B
:10AB780002008C324A60064AC8600A60054A8A6048
:10AB8800DA03224302800B8A438010BDACB8000070
:10AB9800A0AB021801000D00FFFF0000D5AA0218A3
:10ABA800180D000055AC02182A0D000085AC0218DB
:10ABB8002C0D000061AC0218000D0000AFAA0218AD
:10ABC800A40D0000D1B10218A50D00001DB2021895
:10ABD800A70D0000DDB50218000C00008DAA0218B0
:10ABE8000C0C0000B9C902181A0C000011CA02188E
:10ABF800130C000001BF0218150C0000B9BF0218A1
:10AC080010B50800904710BD10B5884710BD00006A
:10AC18000C4B0A001B6810B5002B0AD02E2809D14E
:10AC2800002906D00021DC68D9608C4201D090B29E
:10AC3800A04710BD0029FCD0034B01001B6803206E
:10AC48009847F6E7ACB8000008BF000010B5002030
:10AC580052F0B6FF002010BD074B10B51B68002B43
:10AC680007D000209C689860844202D00A002032F5
:10AC7800A047002010BDC046ACB80000064B10B578
:10AC88001B68002B05D00020DA68D860824200D00B
:10AC98009047002010BDC046ACB800000022024B0F
:10ACA8001B689A60DA607047ACB80000F8B50E4BC4
:10ACB80006001B680D005A88072121230B4851F014
:10ACC80073FD10271923040003703A003100013086
:10ACD80054F06EF920003A002900113054F068F958
:10ACE800200051F085FDF8BDACB80000170D00003C
:10ACF80007B5034B0092002252F035FF07BDC0464E
:10AD080009AC021810B50100014852F041FF10BD0E
:10AD180009AC021807B50093014B53F057F807BD6B
:10AD280009AC021810B51300014A53F07DFC10BDA0
:10AD380009AC021830B585B0099D08AC2478029595
:10AD4800034D0094019553F0A1FC05B030BDC046F9
:10AD580009AC021807B50093014B53F027FD07BD56
:10AD680009AC021810B50A00014953F06FFD10BD77
:10AD780009AC021810B50A00014953F0ADFD10BD29
:10AD880009AC0218F0B58BB00993159B10AC11AD46
:10AD980012AE14AF24882D7836783F780693064B88
:10ADA80004970593139B029603930195099B0094BE
:10ADB80053F0F4FB0BB0F0BD11AC021870B50C4D9C
:10ADC80004002B689A68002A0CD15A8807210123AD
:10ADD800084851F0E9FC2F23037051F009FD2B6856
:10ADE8009C6070BD002204481100A047F9E7C046E6
:10ADF800ACB800002B0D000082020000F7B5134F1D
:10AE080015003B680600DA680191002A19D15A88B2
:10AE1800072141230E4851F0C7FC2E23040003707C
:10AE280020223100013054F0C3F82000202201997B
:10AE3800213054F0BDF8200051F0DAFC3B68DD60A9
:10AE4800F7BD00210348A847FAE7C046ACB80000A0
:10AE5800290D00008202000037B58025194B68468D
:10AE68001C6850F00DFE0099A26A206B8B1A1B011A
:10AE78001B092D05AB4203D9531A1B011B095B4261
:10AE8800019A1B1892B223636287834218D2FA256B
:10AE9800606B0D4BED00C31863630C4BD3189BB26A
:10AEA8006387AB4206D9A023DB05C3186363084B4D
:10AEB800D2186287636B834202D2238F01332387C0
:10AEC800A16237BDACB80000FFFFFF4F5F0500006F
:10AED8008FFDFFFF10B5034B18681C3000F0F4F825
:10AEE80010BDC046ACB8000037B5051E0DD1074BE4
:10AEF80068461C6850F0C4FD054B2563A361054BEB
:10AF080065636362009BA563A36237BDACB80000AC
:10AF1800DDAE021865AF021870B504000D4D2E683D
:10AF2800FFF79AFF2868103034F052FA0A4BF4629F
:10AF38009C4200D91C000A21600120F0C9FFB36AB5
:10AF4800C0180001000970612868103034F0FAF95F
:10AF580070BDC046ACB80000CCCC0C00084B094A08
:10AF68001B6810B5D86A904205D9074A8018D8627C
:10AF7800FFF7D2FF10BD0022DA6202F071FCF9E798
:10AF8800ACB80000CCCC0C003433F3FF10B5034B45
:10AF98001868103034F01CFA10BDC046ACB8000078
:10AFA800024B1B68586319877047C046ACB800004D
:10AFB80070B506000A4B0C001D68FFF74DFF0A2309
:10AFC800696B3160286B2A8F43435B095B182280C9
:10AFD8003360696B8B4201D20132228070BDC0465A
:10AFE800ACB8000070B5060014000D00FFF7E0FFD4
:10AFF80033681C1934609C4202D22B8801332B80A1
:10B00800012070BDF7B56B469F1C05000E0001A816
:10B0180039001400FFF7CCFF3B88B34206D1019BEF
:10B028005A1CEB1AAA420BD308480BE0B342FBD2D6
:10B0380001339E4207D1019BAB4204D3013B5B1B0A
:10B0480000202360FEBDC1204000FBE78205000010
:10B0580070B5012052F072F80F4D2B68002B19D0F3
:10B068000E4B1B68984706002868843052F016FC7F
:10B078000B4B04001B6830009847002C02D0A368D3
:10B08800606898472B6884331B68002B02D0012026
:10B0980052F032F870BDC046ACB8000094BE000053
:10B0A80098BE000010B5002808D1054B18688430F8
:10B0B80052F096FB0120034952F002F810BDC04639
:10B0C800ACB8000059B0021870B50C4E05003368D2
:10B0D80084331B68002B02D1012052F00DF8084B75
:10B0E8001B689847040030682900843052F08EFBB2
:10B0F800044B20001B68984770BDC046ACB80000E0
:10B1080094BE000098BE00000A4B70B51B681C0076
:10B118003C34227A002A0CD1DA6B002A09D02000AC
:10B128005D8852F0BBFB0389237205810C3051F016
:10B138005FFB70BDACB800000A4B70B5051E1C68FB
:10B148000BD13C34200052F04BFB257270BD20001F
:10B158003C3052F0A3FB51F07DFBE36B002BF6D1A2
:10B16800F4E7C046ACB80000054B10B51B680C39B5
:10B178003C330881180052F049FBFFF7C5FF10BDAA
:10B18800ACB8000010B50E4B1C683C34227A022A79
:10B198000AD0032A0BD0012A0CD100F019F9002398
:10B1A8002372FFF7B1FF10BD00F058FAF7E700F07F
:10B1B800BBFFF4E7034B01001B6803209847EEE749
:10B1C800ACB8000008BF000010B5104A0B001268A8
:10B1D8003C32127A022A09D0032A0CD0012A0FD154
:10B1E8000978587800F010F9002010BD09785878CF
:10B1F80000F04EFAF8E70978587800F0C1FFF3E755
:10B20800034B01001B6803209847EDE7ACB800002A
:10B2180008BF0000154A10B512680B00140052341C
:10B22800097824788C4205D19978587800F002F989
:10B23800002010BD1400573424788C4204D199782A
:10B24800587800F03BFAF3E71400723424788C4203
:10B2580004D19978587800F0A9FFE9E7044B443203
:10B268000100127803201B689847E1E7ACB800009A
:10B2780008BF0000384B70B51E6801003400483420
:10B2880000285ED1607A7288052813D853F064FECE
:10B29800132C44572C0302230721304851F084FA19
:10B2A800A7230370A37A010043700120FFF75CFF16
:10B2B8000023637270BDDA202C230721000151F0AE
:10B2C80073FAA0230380C0239B004360BA23038141
:10B2D800E3880100436183610823FF3383830120EE
:10B2E800FFF742FF0123E4E7A388072104339BB259
:10B2F8001B4851F059FAA92305000370A37A43703B
:10B30800A288B16C4280043053F052FE290001201B
:10B31800FFF72AFF0223CCE73A230721114851F00F
:10B3280043FAA4230370A37A0100437000234380E7
:10B33800237A03710120FFF717FF0323B9E70423DA
:10B348006372E07AFF28B5D0FF23E3727368002B9D
:10B35800B0D01B699847ADE7ACB80000A30D00005A
:10B36800A60D0000A10D000070B51F2B18D80F4CBA
:10B3780025682C004834667A002E06D0042E12D197
:10B38800E6888E4201D0052666722272049AE0721F
:10B39800E1800020AA64A380FFF76CFF002070BD45
:10B3A800C1204000FBE70248F9E7C046ACB80000FE
:10B3B80082020000002808D1044B1B681A0048329A
:10B3C80050720122523352421A807047ACB80000C2
:10B3D8000300A0380A0010B509280CD853F0BCFDAA
:10B3E800070B0B0B050B0B070B07002902D090B2BC
:10B3F800FFF740FF10BD034903200C681900A04760
:10B40800F8E7C04608BF000010B5084B1B68483372
:10B418005A7A002803D1012A01D1997210BD044B30
:10B4280001001B6803209847F8E7C046ACB8000045
:10B4380008BF000010B50C00002805D00022064BFC
:10B44800110001201B689847452C00D10024A0B2A8
:10B45800FFF710FF10BDC04608BF00007DB50218F9
:10B46800B5B5021871B30218204B10B51B6801005E
:10B478001C005434002831D1A0785A88042814D8E4
:10B4880053F06AFD03142C131400DA200223072159
:10B49800000151F089F9A1230370002301004370D2
:10B4A8000220FFF761FE0123A37010BD3A23072194
:10B4B8000F4851F079F9A4230370E3780100437031
:10B4C8000C4B228843800023C2800371C38103820E
:10B4D80002810220FFF748FE0223E5E72079FF28D2
:10B4E800E3D05B681B689847DFE7C046ACB800004C
:10B4F800A10D000002210000144B10B51A680100CC
:10B5080014005434002806D1A378032B0CD0FD2056
:10B51800023B034218D12079FF2815D0FF2323715D
:10B5280053685B6898470FE0022307215288084850
:10B5380051F03AF9A5230370E37801004370022023
:10B54800FFF712FE0423A37010BDC046ACB800007C
:10B55800A20D0000002808D1044B05491B681A00F9
:10B5680056321180FF2254331A717047ACB800006C
:10B5780000FFFFFF0B4B70B51D682B0054331C797F
:10B58800FF2C01D084420BD104269C78B44307D108
:10B598006A60187119802000FFF766FF200070BDEF
:10B5A8000148FCE7ACB800008202000010B5074B68
:10B5B8001B6854339A78022A06D1013200209A7007
:10B5C800FFF79AFF002010BD0148FCE7ACB8000067
:10B5D80082020000F0B51E4E1E4B356808001B683D
:10B5E80085B054350C0098472879FF280ED0336869
:10B5F8005F68002F0AD06278092A0AD11122237EB7
:10B60800A2561A3400940021BC68A047002005B057
:10B61800F0BD392AFAD15A331B78002BF6D1F968D4
:10B62800002904D10C4B0A0001201B68984728798F
:10B638002500112231681A35A25649680295257EDF
:10B64800A31C0195247A0094CC680021A047DDE76B
:10B65800ACB80000B0B8000008BF00000A0010B580
:10B66800A42803D0A52805D0A12809D190B2FFF7B6
:10B67800FBFE10BD0029FCD088B2FFF73DFFF8E7BC
:10B68800024B01001B6803209847F2E708BF00003F
:10B6980010B5084B1B6854339A78012803D1012A46
:10B6A80001D1D97010BD044B01001B6803209847D5
:10B6B800F8E7C046ACB8000008BF000010B50C00A1
:10B6C800012805D00022044B110001201B6898476F
:10B6D800A0B2FFF711FF10BD08BF0000F7B5354E47
:10B6E800830035680090EB18DC6D002903D1227CBB
:10B6F800E37B9A4206D1002323602B6EA07C5B6912
:10B708009847F7BD009825F017FF227CE77B04389F
:10B71800D71B874200D907003268C1200626009946
:10B72800BBB20193090209339BB23143528800012D
:10B7380051F03AF812235C3503702B7D0600022B7A
:10B748002DD1EB89300004339BB2B380BBB20133F7
:10B75800F380E17B2368BDB259182A00093053F001
:10B7680027FCA27B3F2113008B4303D0124B0320FD
:10B778001B6898473F23A27BE17B1A40237C002962
:10B788000FD1B9B25B1A591E8B419B011343337217
:10B79800300051F02DF8E37BDB19E373B1E72B8A16
:10B7A800D0E74919994202DB40235B42EEE7802348
:10B7B800FBE7C046ACB8000008BF0000F7B5019031
:10B7C8002A480093076838005C30067D022E04D1B1
:10B7D800032906D0C120400023E0012EFAD1022916
:10B7E800F8D8009B002BF5D0002AF3D0022E19D1EF
:10B7F800452AEFD800251E4800780238854218DB14
:10B808002FD0206800282ED1009BA17323602274BA
:10B81800E073022E1AD1627C0123100018401A42EC
:10B8280019D1FEBD012EE5D1822080008242E1D3EC
:10B83800D0E7AC003C19E46D002C04D0A37C9C46F6
:10B84800019B9C45DDD00135EDB2D7E7012EE8D14B
:10B85800637C9B07E5D528000021FFF73FFF002008
:10B86800DFE70448DDE70448DBE7C046ACB8000082
:10B87800B5BE000082080000820200000F4B70B5C0
:10B888001B681C005C34227D002A15D0627D0025CF
:10B89800042A0FD15A8807210223094850F084FF4F
:10B8A800A5230370A37D010043700320FFF75CFC10
:10B8B80005236375280070BD024DFBE7ACB8000096
:10B8C800A20D000082020000F0B54E4A030016687F
:10B8D8008BB0002800D089E034005C34607D758826
:10B8E800072815D853F038FB162F486F82142F04F9
:10B8F80002232A000721444850F056FFA72303706B
:10B90800A37D010043700320FFF72EFC002363751D
:10B918000BB0F0BDDA202C232A000721000150F0DB
:10B9280043FFA023038000234372384B0100436088
:10B93800638A436183610823FF3383830320FFF70E
:10B9480013FC0123E3E7A3892A00043307219BB2F0
:10B958002F4850F029FFA92305000370A37D4370E9
:10B96800A289716E4280043053F022FB2900032023
:10B97800FFF7FAFB0223CAE700271B22390003A8B6
:10B98800029753F031FB6B46DE1DDF71214B31000E
:10B998001B6802A8984733782A00072108331C48F7
:10B9A80050F002FFAA2305000370A37D327843708C
:10B9B800428002A9043053F0FBFA29000320FFF764
:10B9C800D3FB0323A3E73A232A000721124850F0A8
:10B9D800EBFEA4230370A37D010043700023438082
:10B9E80003710320FFF7C0FB042390E7726E002A5F
:10B9F80000D18DE7326E18001268904700237366F5
:10BA080086E7C046ACB80000A30D000000010300A3
:10BA1800A60D0000B4B80000A10D0000F7B5009312
:10BA2800431E070014000191012B50D8D31E192B77
:10BA38004DD8089B002B4AD0009B002B47D0274BA2
:10BA48001E6832005C32137D002B01D0834204D182
:10BA5800012F04D1108A00283CD1214836E0D08932
:10BA68000028FAD0022B05D0002123F075FB80B204
:10BA780000282BD135005C356B7D042B18D1174A73
:10BA8800231D1268072152889BB2164850F08CFE7D
:10BA9800A92306000370AB7D0099437044802200FF
:10BAA800043053F085FA31000320FFF75DFB0CE00A
:10BAB800089B00203366019B2F756B82009B736681
:10BAC800FF23AC81EB75FFF7FFFE0020FEBDC12010
:10BAD8004000FBE7012BCDD0C6E7C046ACB800005C
:10BAE80082020000A60D000010B50D4B1C685C34E6
:10BAF800237E002B13D1237D002B10D0627D062AD4
:10BB08000DD1022B03D10121E08923F025FB217DF2
:10BB1800012902D1208A23F01FFB0023237510BDC1
:10BB2800ACB80000082110B5074B00021B680143A0
:10BB38005A880648022350F037FE01230370123357
:10BB4800437050F055FE10BDACB80000040E000064
:10BB5800F7B5514B05001B680E0001935F88830001
:10BB68003F208979019AD3188A0901400091310050
:10BB7800DC6D0C396368022A50D0032A27D0012AC9
:10BB88003AD0002B00D079E0B388201D013B6373C5
:10BB980051F03CFE019B5C331B7D022B4DD1009B79
:10BBA800032B4FD10321607B50F036FF002706009E
:10BBB8006368002B4FD1019B627B1B6EA07C0099B0
:10BBC8001C693300A047300050F0B0FF25E0002B7F
:10BBD80054D0237B009A934250D1201D51F016FE79
:10BBE800B388627B39009B18013B63732B4BED18BC
:10BBF800A8B250F037FDCDE7002B3FD1201D51F002
:10BC080005FEB3883900013B6373009B244A237304
:10BC1800224BED18A8B250F08BFCF7BD002B2DD0AD
:10BC2800237B009A934229D1201D51F0EFFDB38860
:10BC3800627B9B18013B6373EFE7012B02D1009BEA
:10BC4800022BAFD96368002BE7D0201D51F026FEE8
:10BC580050F000FEF6E7201D51F020FE05002900F7
:10BC68002A8AF019013A133153F0A2F92B8A2800D5
:10BC7800013BFF18FFB250F0EDFD99E7080050F0C6
:10BC8800E9FD064B3900E81880B250F0EBFC2800BB
:10BC9800FFF748FFC1E7C046ACB80000C8C8FFFFBF
:10BCA800204E00000200002010B50C4B1C680C4B05
:10BCB8001B78023B984202DB09D10A480AE081005E
:10BCC8006118C96D002906D0897C914203D1FFF71C
:10BCD80029FF002010BD0130C0B2EBE7ACB800006E
:10BCE800B5BE000082080000F0B58BB007925C4A30
:10BCF8001D001468109B0691002800D0ADE01626A0
:10BD080004AAB6180A881F00328080229202010015
:10BD18001740134200D00631022218001040059047
:10BD2800134201D00631C9B2300022F00EFC002FB8
:10BD38003CD000283AD1152204ABD2183F23137007
:10BD4800213B2B400393474B00900293079B300005
:10BD580001934549062322F0C3FA220033885C3256
:10BD6800D38106333380059B002B24D0002822D1B1
:10BD7800152204ABD2183F231626137004ABF6180D
:10BD88001E231D40394B00900293079B30000193FE
:10BD980037490623039522F0A3FA230032885C333F
:10BDA8001A82002F18D000282CD10CE02300002282
:10BDB8005C33DA81D7E7230000225C331A8297428A
:10BDC80007D090421ED123005C330121D88923F08B
:10BDD800C3F9059B002B07D0002813D123005C333F
:10BDE8000121188A23F0B8F900280BD1214B05004E
:10BDF8001A780300023A93420FDB2300FF227033C4
:10BE08001D809A7000235C342376E389002B00D1CF
:10BE1800238A069A13800BB0F0BD9900611801338C
:10BE2800CD65DBB2E7E7AB00E318DE6D002E05D089
:10BE38007368002B0BD1300050F078FE0135EDB25D
:10BE48000C4B1B78023B9D42EDDB0020E3E7301DE5
:10BE580051F024FD50F0FEFCEAE70025F0E7C0466B
:10BE6800ACB800003CC20218271800006CC20218C7
:10BE780028180000B5BE0000034B1B685C335A7DD0
:10BE8800042A00D1D8757047ACB80000174BF7B535
:10BE98001C688600A619F56D0191002D1DD0144B64
:10BEA8006188C01880B250F0DDFB2B68002B04D0ED
:10BEB800236EA87C5B690F4998476F68002F0FD1E4
:10BEC800236EA87CDB6801999847280050F02EFE65
:10BED8005C34F765237E013B2376FFF705FEF7BD4B
:10BEE800281D51F0DBFC50F0B5FCE6E7ACB80000CB
:10BEF800C8C8FFFF82080000F0B585B0019119009D
:10BF08000025294B94461A6802AB9F1D0B0A9B001B
:10BF1800D318DB6D80261C003D80AB4215D05C3207
:10BF2800D489AC422AD001980088844226D8661D5C
:10BF3800864223DB001B80262C00052805D1012220
:10BF48005B7C134000263B800234A31D9BB26246F3
:10BF5800164850F029FC019B05001B8806710380D8
:10BF68004480002C04D022003900053053F020F81A
:10BF7800280050F03DFC002005B0F0BD148A802652
:10BF8800002CE2D0019A128894420AD8601D90428F
:10BF980007DB121B0024052AD7D15B7C9B07DB0F2C
:10BFA800D0E70024D1E7C046ACB80000140C00006C
:10BFB800F0B585B00293494B03921A68029B180AA0
:10BFC8008300D318DF6D3D1E3FD000258B88AB4220
:10BFD8003BD0C0B2019008885C320090D089A8425A
:10BFE80049D0009CA04246D8009E441DB44242DB82
:10BFF800301A02282CD02C0005284DD14A888026DA
:10C00800002A0CD1022B0AD1CC798A792402144354
:10C01800012C28D100257B7C23437B742E0004232C
:10C02800039A02992E4850F0BFFB009B867003804C
:10C0380050F0DEFB002C08D03B68002B05D0F97BC4
:10C04800002902D10198FFF749FB280005B0F0BD8F
:10C05800137D2C008026022BE1D10198FFF778FD93
:10C0680001252600DBE7002C14D101227B7C9343B9
:10C078007B742500F5E7148A002C0CD000988442C4
:10C0880008D8009D601DA84204DB2C1B022C05D09B
:10C09800052C0BD0002425008026C0E7157D012D36
:10C0A800F8D10198FFF754FD0024DAE74D88002DF8
:10C0B800F0D1022B0FD1CC798A7924021443012CB8
:10C0C80003D17A7C13437B74A8E7002C03D17A7CD4
:10C0D8009A437A74CDE72C00DDE7C046ACB800007F
:10C0E800160C00000A7810B5122A0BD1180A064B54
:10C0F80082001B689B18DB6D002B03D04978C0B207
:10C10800FFF7ECFA002010BDACB80000054B820028
:10C118001B6810B59B18DB6D002B01D0FFF702FDE3
:10C1280010BDC046ACB800000A0013490300A0388F
:10C1380010B509680A2819D852F00EFF0E181818F9
:10C148000E12180E18060E004B6E002B04D10B6E43
:10C1580090B21B68984702E090B2FFF7B5FB10BD9C
:10C16800002AFCD00B6E90B25B68F3E7034903200A
:10C178000C681900A047F2E7ACB8000008BF00003F
:10C1880010B5084B1B685C335A7D002803D1012A7F
:10C1980001D1997510BD044B01001B680320984715
:10C1A800F8E7C046ACB8000008BF00001F4BF7B561
:10C1B8001D682B005C330093DE7D002805D000222B
:10C1C8001B4B110001201B6898470623009A5375E2
:10C1D800FF2E1DD0B700EF19FB6D0193002B17D16F
:10C1E8000121142050F018FC2B6E04009B683000CD
:10C1F8009847A074FF2812D0201D51F0F1FA019B36
:10C20800009A23606374009BFC651B7E01331376E0
:10C218002B6E00205B689847FFF766FCF7BD30007F
:10C22800FFF780FC200050F081FCF1E7ACB800007B
:10C2380008BF0000002800020000000003280002D8
:10C2480000000000DB2A00040080450003280002EB
:10C2580000000000DC2A0010008045000229000AC6
:10C26800000000000028000200000000032800026F
:10C2780000000000DD2A00040080150603280002E3
:10C2880000000000DE2A0010008015060229000ABE
:10C298000000000025BA021885B80218ADBC0218C3
:10C2A800C5B70218F7B5364D83002E680090F3180D
:10C2B8009C6F002903D1227CE37B9A4206D100239C
:10C2C8002360F36FA07C5B699847F7BD009825F061
:10C2D80033F9227CE77B0438D71B874200D9070053
:10C2E8002A6806250099BBB2019309020D339BB257
:10C2F80029435288234850F057FA7836337A050094
:10C30800022B33D1E38A02339BB2AB80BBB2013339
:10C318002B810E2300222800FF33EA806A812B80BC
:10C328002368E17BBEB2591832000D3052F040FE4E
:10C33800A27B3F2113008B4303D0134B03201B68C0
:10C3480098473F23A27BE17B1A40237C00290FD129
:10C35800B9B25B1A591E8B419B0113432B732800FA
:10C3680050F046FAE37BDB19E373AEE7238DCAE7A7
:10C378008919994202DB40235B42EEE78023FBE701
:10C38800ACB800000A0C000008BF0000F7B5019027
:10C3980024480093076838007830047A022C04D1C6
:10C3A800032906D0C126760021E0012CFAD1022902
:10C3B800F8D8009B002BF5D0002AF3D0022C18D116
:10C3C800452AEFD8184806780020023EB04217DB0D
:10C3D80023D02E68002E22D1009B013CA9732B602C
:10C3E8002A74EE73012C02D83100FFF75BFF30008E
:10C3F800FEBD012CE6D1822080008242E2D3D1E743
:10C4080085007D19AD6F002D04D0AB7C9C46019B47
:10C418009C45DED00130C0B2D8E7044EE7E7044EB1
:10C42800E5E7C046ACB80000B5BE000082080000D1
:10C4380082020000364BF0B51E6885B033007833B1
:10C448000C000090039201935972FF2921D08B00B0
:10C45800F3189F6F0293002F1BD101213C2050F04D
:10C46800DBFA051E15D03C22390052F0BDFD28002C
:10C4780002223900383052F0B7FD281D51F0B0F9CA
:10C48800029B2F606F749D67019B019A9B7A013311
:10C498009372009B013B012B34D8039B002B31D0B6
:10C4A800330078331A7A002A02D000998A422CD1B4
:10C4B800039A2100F267009A01271A72144B551E3D
:10C4C80018686B425D41134BED1830F0A3F8062154
:10C4D80023020200194310481A2350F065F901237A
:10C4E8005B42C3800D4B87800380FE3BFF3B43725A
:10C4F800057250F07DF90020A4003419A36F1F7550
:10C5080005B0F0BDC1204000FAE70548F8E7C0468D
:10C51800ACB8000027180000190C00001502000034
:10C5280082020000138870B50C001500002B11D092
:10C5380030F070F82102062402000823064821433F
:10C5480050F032F9102303702B8883806B88C380E6
:10C5580050F04EF970BDC0460F0C0000F7B5574BB0
:10C5680007001B680D0001935E8883003F208979CE
:10C57800019AD3188A090140009129009C6F0C394F
:10C588006368022A50D0032A27D0012A3AD0002B08
:10C5980000D079E06B88201D013B637351F036F9B8
:10C5A800019B78331B7A022B4DD1009B032B4FD173
:10C5B8000321607B50F030FA002706006368002BE7
:10C5C8004FD1019B627BDB6FA07C00991C69330013
:10C5D800A047300050F0AAFA25E0002B54D0237B66
:10C5E800009A934250D1201D51F010F96B88627B5C
:10C5F80031009B18013B6373314BFF18B8B250F000
:10C6080031F8CDE7002B3FD1201D51F0FFF86B88A2
:10C618003100013B6373009B2A4A2373284BFF18A0
:10C62800B8B24FF085FFF7BD002B2DD0237B009AC1
:10C63800934229D1201D51F0E9F86B88627B9B1841
:10C64800013B6373EFE7012B02D1009B022BAFD9AB
:10C658006368002BE7D0201D51F020F950F0FAF85C
:10C66800F6E7201D51F01AF905002900EA89F019AA
:10C67800013A133152F09CFCEB892800013BFF186A
:10C68800FFB250F0E7F899E7080050F0E3F80C4BD8
:10C698003100F81880B24FF0E5FF39020827074B40
:10C6A80039431B6808485A88022350F07DF8012353
:10C6B80003701233437050F09BF8B4E7ACB8000035
:10C6C800C8C8FFFF204E0000040E000003880020A9
:10C6D800834209D18B78FF2B06D1C978F93B4B43AC
:10C6E8009B5A834200D0833070470288030010B5FC
:10C6F800002A10D00279CC788520224094420ED1AD
:10C70800D88800280CD0CA799B7A002013409A4216
:10C7180005D0853003E08A788320FF2AF0D110BD48
:10C728008B79FF2BFBD18320F9E7F0B504000026B5
:10C7380089B0059103920693638AA28A0193D31A5A
:10C748009E4201DB09B0F0BD16237343E318997DBF
:10C75800022960D1198B029191425CD8019AB218D2
:10C76800914258DDDB7D0793019BDD43039B6D18E8
:10C778001F88EDB2002F51D0039B9F1DDB88002B33
:10C7880049D1059B9A8816235D4328006319183000
:10C79800D97D201821F066FD00283CD001233D00FA
:10C7A80004933700019B01339B192B80029B6B80FC
:10C7B800079B2B71162001970137FFB27843231886
:10C7C8009A7D042A16D10E9A1288002A12D1069A46
:10C7D8000499D2788A420DD1069A18301288D97DE8
:10C7E800201821F03FFD002804D0638A0E9A0133F7
:10C7F800DB191380638AA28A0133DB19934206DCB2
:10C8080016237B43E3189B7D013B012BD2D8019B68
:10C818009E1B6E711E000136F6B28DE71620684326
:10C82800059B1A8823181830D97D201821F01AFD85
:10C838000028A1D0039D0497B3E70000F8B5184B72
:10C84800184E1C68002829D103003278023A904219
:10C8580006DB2200783480321380A3720020F8BDF2
:10C868008100611801308B67C0B2F0E7AB00E318B4
:10C878009F6F002F05D07B68002B09D1380050F03E
:10C8880055F90135EDB23378023B9D42EEDBE5E721
:10C89800381D51F003F84FF0DDFFECE70025F2E713
:10C8A800ACB80000B5BE000070470000F7B51C4FDB
:10C8B80086003C680191A619B56F002D1FD0194B51
:10C8C8006188C01880B24FF0CDFE2B68002B04D0D1
:10C8D800E36FA87C5B69144998476B680093002B49
:10C8E80017D1E36FA87CDB6801999847280050F0BE
:10C8F8001DF9009B7834B367A37A013BA3723B68A8
:10C9080078339A7A002A03D1197A002900D01A724A
:10C91800F7BD281D50F0C2FF4FF09CFFDDE7C04671
:10C92800ACB80000C8C8FFFF8208000070B5050059
:10C938000E00FF282FD0194B1868AB00C3189B6F47
:10C94800002B28D002007832147A002C23D01B7DCB
:10C95800002B1AD0013C63425C41114B2900E418BA
:10C968002FF058FE06212B02020019430D481A2306
:10C978004FF01AFF01238380023BC3800A4B0472E5
:10C988000380182343724FF033FF28003100FFF76C
:10C998008DFF002070BD0548FCE7C046ACB800001C
:10C9A80027180000190C000017020000820200007E
:10C9B800180A144B82001B6870B59B189C6F221EC6
:10C9C80013D000224B8893420FD0E58A8B88C0B2DF
:10C9D80095420CD09D420AD86E1D9E4207DB5B1B18
:10C9E800042B02D1FFF7BAFD0122100070BD00220E
:10C9F800248D9442F9D09C42F7D8651D9D42F4DB02
:10CA08001B1BEDE7ACB80000204BF7B51D680C0008
:10CA18002E007836327A481C013A53425A411C4B50
:10CA28000978D218777A21F01DFC00281AD0BF00A7
:10CA3800ED19AB6FDA7C002A10D1327A022A13D1B1
:10CA48001A0026331A3200932000124B1249FFF7BE
:10CA58006CFE628AAB6FDA82A28A1A83AA6FD37CD1
:10CA68000133D3740020FEBD012AF7D11A003833F0
:10CA78002C3200932000094B0949FFF756FE628AC1
:10CA8800AB6F1A85A28A5A85E8E7C046ACB80000A1
:10CA980027180000D4CB0218CCCB0218E0CB021820
:10CAA800D8CB02183E4BF7B51D680B782A007832B0
:10CAB800547A152B5DD1A600AE19B36F0193DB7CB8
:10CAC800012B39D1137A022B38D1019F35491A37F6
:10CAD8003800FFF70AFE00282ED101983A003249A3
:10CAE8002630FFF7F3FD002826D1019A28002100FF
:10CAF8001632FFF717FDB36FDD8C294B1868002D30
:10CB080017D021002FF086FD0621240202000E23F3
:10CB1800264821434FF048FE86235B00038000230C
:10CB28000222C380438101338580028183814FF0D3
:10CB38005FFE0022B36F1A750020FEBD012BF8D1ED
:10CB4800019F1B492C373800FFF7CFFD0028F3D190
:10CB580001983A0017493830FFF7B8FD0028EBD1A3
:10CB6800019A280021002832FFF7DCFCB36F1D8FE3
:10CB7800C3E70D2B04D120004978FFF793FBDBE7CF
:10CB88000C2BD9D1A300EB189E6FEB6F20009B688C
:10CB98009847B074EB6F00201B689847CCE7C046F5
:10CBA800ACB80000CCCB0218D4CB02180A0C000099
:10CBB800D8CB0218E0CB02183DC4021835C90218B8
:10CBC80095C30218DB2AFF04DC2AFF100229FF01A3
:10CBD800DD2AFF04DE2AFF100229FF01F7B50192C2
:10CBE80000220D00060000F045F80327C41CBC43D2
:10CBF8002C1921003000019A01F012FEC019B84327
:10CC0800019A241821003000143216F0E7FBC019ED
:10CC1800B8432018401B80B2FEBD70B50500002047
:10CC280000F045F804002800032601F053FE033401
:10CC38008019B043B44324182800143016F021FC9E
:10CC48008019B043A4B2201880B270BD074B10B54C
:10CC5800984202D801F0D8FD10BD054B984202D881
:10CC680000F03CF8F8E716F047FCF5E76DC800005F
:10CC780081C80000F8B500220D00060000F05DFE36
:10CC88000327C41CBC432C1921003000002201F0EA
:10CC980051FAC019B843241800223000210000F0CE
:10CCA8008BF8C019B8432018401B80B2F8BD70B586
:10CCB800002000F063FE04000020032501F052FA72
:10CCC80003344019A843AC432418002000F07CF832
:10CCD8004019A843A4B2201880B270BD044B10B507
:10CCE800984202D800F072F810BD01F04FFAFBE745
:10CCF80077C80000016810B5002903D0054B1860FB
:10CD0800002010BD044B01200A001B689847C12071
:10CD18004000F6E7B8B8000008BF000010B5FEF7FD
:10CD280047F910BD0123002203708370DB18C3701C
:10CD3800033342700371704710B5FEF731F90020D4
:10CD480010BD10B500F0E2F810BD0000054B10B59D
:10CD58001B68002B03D0196800F05EF910BD02486B
:10CD6800FCE7C046B8B800008202000070B5082190
:10CD780005000748FDF73CFE0B2303600023040071
:10CD880083808571FDF764FE2100FDF750FE70BDBC
:10CD98006FC8000070B506000C0006480821150091
:10CDA800FDF726FE0660858001002000FDF73FFEA6
:10CDB80070BDC0466FC8000010B50248FFF79AFF63
:10CDC800002010BD98CE02180020704713002D4A8D
:10CDD80073B50C0090421AD118680B284ED852F03F
:10CDE800BBF80618224D4D4D4D4D4D4D2F450C218C
:10CDF8002548FDF7FDFD0023050003608380811DA4
:10CE08000830FFF78BFF29002000FDF710FE0020F7
:10CE180076BD19895868FFF78FFF210002000120AD
:10CE2800FFF7B8FFF3E70C211748FDF7E1FD0223F0
:10CE380003600023050083800630FFF773FFE2E7F5
:10CE48005A79511E8A4119796B46DE1DD2B23000DB
:10CE5800FFF777FF082105000B48FDF7C9FD0A23F6
:10CE680003603378010085808371CDE71879FFF777
:10CE78006DFF021ECBD021000B20D1E72100034A11
:10CE8800CEE7C0466EC800006FC8000082020000EE
:10CE980075CD0218F0B505000D4303242B0023407F
:10CEA80025421ED00C0005008E18331B032B1BD9FE
:10CEB800637827781B023B43A7783F043B439C4693
:10CEC8006746E37804341B063B431F0A2B706F70D8
:10CED8001F0C1B0EAF70EB700435E6E7CC58C4503E
:10CEE8000433D41A032CF9D893089B00C018C91826
:10CEF800D21AFF2500231C002C40A24200D8F0BD06
:10CF0800CC5CC4540133F6E734207047F0B585B0E3
:10CF18000D0003900292202944D80024234F3B6837
:10CF28001033E2B20192A2009A58002A36D1029B2D
:10CF38005426002B00D1783628007043103080B278
:10CF4800FDF78FFD011E03D1B020C00005B0F0BD74
:10CF5800012338680434A4005B4221500A004B6066
:10CF68000023134C0D734D738B608B731C329D42E1
:10CF78000CD1029B002B02D102338B73083050F086
:10CF880045FC039B019A00201A70DFE7019F53704C
:10CF9800013317705462DBB29219E8E70134052CAB
:10CFA800BFD1D1E7C1204000D0E7C046BCB80000DF
:10CFB800A55A5AA537B5051E164C0ED16B46012247
:10CFC8002160D81D2021FFF7A1FF6B462A00082108
:10CFD800D81DFFF79BFF34203EBD002522682B1D7E
:10CFE8009B009858002801D0FDF740FD0135052D1C
:10CFF800F4D100252B00226808339B00D318586809
:10D00800002801D0FDF732FD0135042DF2D10023AF
:10D018002360E0E7BCB80000F7B506000D0004285F
:10D0280028D8164F331D38689B001C580193002CD4
:10D0380020D0637B227B9A420DD120000024FDF78B
:10D0480015FD3B68019A2800D450A54202D0300053
:10D05800A8470020FEBD002B06D0A37B9B0700D568
:10D068000830210050F024FC0123A27BA560134363
:10D07800A373EEE7C1204000ECE7C046BCB800004F
:10D08800F0B587B0049313000392049A05909D1895
:10D098004D19404BADB21B680291982D07D8202D31
:10D0A8001AD854221F0020250192002B19D10027DD
:10D0B8002433BA009A58FCB2002A57D00137042FFB
:10D0C800F7D1B021344B022000221B68C9009847D1
:10D0D800B020C00007B0F0BD08331F00CC2398254E
:10D0E80001933C68002CECD080220026636812066D
:10D0F8001100F1400B4202D10136202EF8D1617B9C
:10D10800002904D1244B0A0003201B689847802378
:10D118001B06F34062689A43637B6260013BDBB2A3
:10D128006373002B03D12100380050F0C1FB019B31
:10D13800103473431E19316B184A914203D0164BB1
:10D1480003201B689847029B3000B380049B202271
:10D15800F380039B0021338101237581B373103061
:10D1680051F042FF059B00201E60B3E728003430D1
:10D1780080B2FDF776FC061EA3D0FF233373074B5E
:10D1880008373363034BBF001B687473DF197E6075
:10D19800D9E7C046BCB8000008BF0000A55A5AA588
:10D1A80083888B4206D35B1A83800389C91801815F
:10D1B800002070470048FCE78202000003898B4288
:10D1C80006D382888A18591A828001810020704704
:10D1D8000048FCE782020000C3888B4206D35B1A32
:10D1E800C3800389C9180181002070470048FCE703
:10D1F8008202000003898B4206D3C2888A18591A12
:10D20800C2800181002070470048FCE782020000CC
:10D21800074B026B10B504009A4205D00022054B5B
:10D22800110001201B689847A37B0133A37310BD2D
:10D23800A55A5AA508BF0000016B244A70B505001D
:10D24800914203D0224B03201B689847A97B0029F1
:10D2580004D11F4B0A0003201B689847A87B0028AD
:10D2680032D00138C4B2AC73002C01D0002070BD9C
:10D27800184B2A7B1868FF2A08D16B7B08339B0060
:10D28800C01844602800FDF7F1FBEFE7131D9B0071
:10D2980019584E7B731C4B7380236D7B1B06EB4028
:10D2A8004D682B434B608B7BDD0704D510008968E4
:10D2B800FFF7B2FEDAE7002ED8D10222134200D0DF
:10D2C800083050F0A3FAD1E70348D0E7A55A5AA589
:10D2D80008BF0000BCB8000082020000F8B51F00BB
:10D2E8000B8905000C00934213D300268188343142
:10D2F8004118A08834302018FFF7CCFDB74206D07B
:10D3080029002000202210311030FFF7C3FD300023
:10D31800F8BD014EFBE7C0468202000010B51300BD
:10D3280002899A4206D183883433C018FFF7B2FDC8
:10D33800002010BD0048FCE782020000030010B581
:10D34800080099881A8934315918FFF7A3FD10BDD0
:10D3580030B5002809D08C184589E418A54204DBAB
:10D3680081800281C380002030BDC1204000FBE7DE
:10D3780000207047F0B50127794B8FB01B680693E2
:10D38800069B90331D680793002D1ED0069A98328D
:10D3980013783B4313706B7B581E092800D9C7E0EC
:10D3A8002C7B51F0D9FD051425256D7B96A6B1BCC3
:10D3B80020006B680DAA0CA99847041E00D0BFE096
:10D3C800684A0D990C98FDF793FC0FB0F0BD0BAEB1
:10D3D800200033006C680DAA0CA9A047041E00D0D9
:10D3E800AEE032885F4B0D990C98FDF793FCECE7A3
:10D3F800032B2FD102AA16339B1804930CAB03936B
:10D4080008AB02931A239B1801930DAB00932000DD
:10D418000BAB6C680AAA09A9A0473B000400002CC2
:10D4280000D08DE0504A02A90592192252181278AC
:10D43800029304920C9A08AB03921B780B9A0193FF
:10D448001A235B181B880A99009309980D9BFDF70E
:10D4580099FCBAE7192302AA9B1804930CAB03930F
:10D4680008AB02931A239B1801930DAB009320007D
:10D478000BAB6C680AAA09A9A04700230400CEE7F1
:10D488000CAE200032006B680DA99847041E57D1D6
:10D498003178344A0D98FDF745FC96E70AAB0193BD
:10D4A8000DAB009309AE200033006C680CAA0BA9E1
:10D4B800A047041E44D120212A4B3278019302ABA5
:10D4C8005B181B780C9900930B980D9BFDF732FCA9
:10D4D8007BE70BAE200033006C680DAA0CA9A047AF
:10D4E800041E2DD132781F4B0D990C98FDF732FC94
:10D4F8006BE720006B680DA99847041E20D11949D5
:10D508000D98FDF72FFC60E720006B680DA9984780
:10D51800041E15D113490D98FDF72CFC55E7200082
:10D528006B689847041E0BD10E48FDF7EBFB4CE7E0
:10D5380000220E4B11003800A8241B6898472401CC
:10D54800079850F0ABF90022AB686A732100287B7A
:10D558009847069A98321378BB43137010E7C04671
:10D56800C0B8000019D6021801D6021808BF00007A
:10D5780070B50E00082819D8002A17D0002B15D02E
:10D588000D490D68010169184C7B002C11D1280048
:10D598008B604E734A609030983550F037F92B788D
:10D5A800DB0701D4FFF7E6FE200070BDC12464004C
:10D5B800FAE7024CF8E7C046C0B800008204000051
:10D5C8000C4B70B51C680500200090300E0050F020
:10D5D80065F900220300427329003200007B9B6832
:10D5E800984701229834237893432370FFF7C2FEAB
:10D5F80070BDC046C0B80000431E984110B5034B2B
:10D60800404200211840FFF7DBFF10BD82030000F5
:10D6180010B501000020FFF7D3FF10BD084B00280C
:10D628000BD1196003000C3108700130C0B24B7087
:10D6380010310928F8D1EC20704700221A60FAE767
:10D64800C0B80000EC20704710B513000A00012193
:10D65800FFF78EFF10BD10B513000A000221FFF777
:10D6680087FF10BD10B513000A000521FFF780FFE2
:10D6780010BD10B513000A000621FFF779FF10BD91
:10D6880010B513000A000721FFF772FF10BD10B58F
:10D6980013000A000821FFF76BFF10BD10B5130037
:10D6A8000A000921FFF764FF10BD0000094A0B00BA
:10D6B800126810B5110098310978890704D500213E
:10D6C800D9329847002010BD0A21034AFFF750FFBE
:10D6D800F9E7C046C0B8000079D3021810B51300A6
:10D6E8000A000321FFF744FF10BD10B513000A001C
:10D6F8000421FFF73DFF10BD094A70B51468030007
:10D70800202620000D0032001900993051F050FCFD
:10D71800200032002900B93051F04AFC70BDC046E3
:10D72800C0B80000084B70B51C680D002026210009
:10D738003200993151F03CFC210032002800B93107
:10D7480051F036FC70BDC046C0B80000074B10B59C
:10D758001C68010020001022D93051F029FC022356
:10D76800983422781343237010BDC046C0B8000017
:10D77800094B07B51B681B68002B0AD0198AD868A3
:10D7880001AAFDF73FFC002803D10198FDF7C4FB6F
:10D7980007BDFDF7FBFBFBE7C4B8000070B504004C
:10D7A800054B21001868056850F082F8A54201D1A0
:10D7B800FFF7DEFF70BDC046C4B8000043425841C1
:10D7C800024B40420840186008207047C4B8000067
:10D7D8000820704770B504000D00FFF7DFFF210037
:10D7E80020002A0010310C30FDF7FCFB002823D064
:10D7F800174D2868016800291AD0238A0A8A93429B
:10D808000CD304D1E2689446CA68944506D90968DD
:10D818000029F3D121004FF0F9FF02E0220050F077
:10D82800FBF82B681B689C4201D1FFF7A1FF70BD74
:10D83800210050F021F8F4E76168002904D1054B74
:10D848000A0001201B6898476368A0689847EEE7BC
:10D85800C4B8000008BF000010B5FFF79FFF10BD57
:10D8680030B585B002A84FF0BBFF154D2B681C687A
:10D87800002C0FD0218AE06801AAFDF7C3FB114BE9
:10D88800984207D1286850F009F8210002A84FF003
:10D89800BDFFEAE7FFF76CFF02A84FF0FFFF041E89
:10D8A8000BD04168002904D1074B0A0001201B68EE
:10D8B80098476368A0689847EEE705B030BDC04652
:10D8C800C4B800008205000008BF000010B5FDF7CD
:10D8D8006FFB10BD73B50D1814008D4201D20134D1
:10D8E800A4B26B469E1C310001A8FDF761FB32888B
:10D8F800019BA24204D100209D4205D9E81A03E009
:10D908000020A41A012CF9D076BD37B56B46040067
:10D918009D1C290001A8FDF74BFB2888238A019A42
:10D92800E168984204D100208A4205D2881A03E0AF
:10D938001B1A0020012BF9D03EBDF7B505000C00DD
:10D948001600FFF76BFE03270330B8432318320095
:10D95800190028000193FFF72DFB019BC019B8435C
:10D968001B183200190028000193FFF727FF019BBD
:10D97800C019B8431818001B80B2FEBD70B5050069
:10D98800FFF760FE040028000326FFF7BDFA033402
:10D998008019B043B44324182800FFF719FF8019F1
:10D9A800B043A4B2201880B270BD0000074A03003B
:10D9B8001268506C002800D17047027B9A4202D14D
:10D9C800427B8A42F8D00068F4E7C046C8B8000035
:10D9D800F7B5050008680C001E38062800D9B7E01E
:10D9E80051F0BAFA04243349708A9C000B89CA881A
:10D9F80001A88988FFF744FB041E15D108215B485C
:10DA0800FCF7F6FF1E230360019B84801A7B01004C
:10DA180082715B7BC3712800FDF709F8544B0199AB
:10DA2800186844304FF0F2FE2000FEBD4979207995
:10DA3800FFF7BCFF00284BD0FFF7EAFB00222900C4
:10DA48001F2000F091FB0024EEE720794979FFF7C9
:10DA5800ADFF041E3CD0837B012B05D1444B210034
:10DA6800186844304FF024FF2000FFF7E5FB002240
:10DA780029002020E5E749792079FFF797FF071E5D
:10DA880026D001893948103189B2FCF7B1FF00244A
:10DA9800212301000600848003603B7B10318371E1
:10DAA8007B7BC371BB8803813B894381FB8883816E
:10DAB800BB7BC3813800FFF741FC31002800FCF72D
:10DAC800B6FFB1E749792079FFF770FF002842D106
:10DAD800284CA9E7002B09D0FFF762FB041EA3D14D
:10DAE80002002900222000F03FFB9DE7FFF766FBBC
:10DAF800F4E7FFF77FFBF1E749792079FFF756FF55
:10DB08000028E5D02100E2880831FFF707FC041E51
:10DB180000D089E7220029002320E4E74979207909
:10DB2800FFF744FFE1790600A079FFF73FFF010006
:10DB3800002ECDD00028CBD0002330003289FFF74B
:10DB4800CDFB041E00D06FE7020029002420CAE79D
:10DB5800C124640068E7A279E3792189002AB9D150
:10DB6800002BC6D0FFF738FBB8E7C04679C80000DD
:10DB7800C8B80000820200000B4B70B51B680E008D
:10DB88001C681500002C02D02368002B05D0002249
:10DB9800064B110003201B689847231D143433607B
:10DBA80000202C6070BDC046C8B8000008BF000047
:10DBB800F8B51D000B4B0F001B6816001C68002CE5
:10DBC80002D02368012B05D00022074B1100032047
:10DBD8001B689847A31D3B6010333360A38800205F
:10DBE8002B80F8BDC8B8000008BF00000B4B70B50B
:10DBF8001B680E001C681500002C02D02368022B3D
:10DC080005D00022064B110003201B689847631DAE
:10DC18003360237900202B7070BDC046C8B800005F
:10DC280008BF0000F8B51F000F4B0E001B68150059
:10DC38001C68002C02D02368032B05D000220B4B54
:10DC4800110003201B6898472379079A3B70637972
:10DC580000201370A31D336010332B602379163313
:10DC6800E418069B1C60F8BDC8B8000008BF000097
:10DC7800F8B51D000B4B0F001B6816001C68002C24
:10DC880002D02368042B05D00022074B1100032083
:10DC98001B689847631D3B6010333360237900206D
:10DCA8002B70F8BDC8B8000008BF0000094B70B55C
:10DCB8001B680D001C68002C02D02368052B05D0BA
:10DCC8000022054B110003201B68984704340020EC
:10DCD8002C6070BDC8B8000008BF0000094B70B5C3
:10DCE8001B680D001C68002C02D02368062B05D089
:10DCF8000022054B110003201B68984704340020BC
:10DD08002C6070BDC8B8000008BF0000F7B50193CB
:10DD18001F4B0F001B6816001C68002C03D02368DB
:10DD2800073B012B05D900221A4B110003201B6861
:10DD3800984722680023A588072A00D1A379ED18FF
:10DD4800ADB22900083189B21348FCF751FE23000F
:10DD58000833C5803B6010333360E379019A25337B
:10DD6800E31813600200089B08321A60A388099A16
:10DD78001380A3790A9A137022000B9B25321A602C
:10DD8800E3790C9A1370024B1B6858600020FEBDA3
:10DD9800C8B8000008BF000079C80000F7B5060041
:10DDA800019110482821FCF723FE0F4D04002F682D
:10DDB8003B681B6886800360002E04D120220199ED
:10DDC800063051F0F5F83868FCF748FE2100FCF7FA
:10DDD8002EFE2B681868FCF725FE00222B681A60B7
:10DDE8005A60F7BD79C80000C8B80000F7B506004A
:10DDF8000091144848210192FCF7FAFD124D0400E5
:10DE08002F683B681B6886800360002E0AD1202299
:10DE18000099063051F0CCF82000202201992630D4
:10DE280051F0C6F83868FCF719FE2100FCF7FFFD31
:10DE38002B681868FCF7F6FD00222B681A605A60F8
:10DE4800F7BDC04679C80000C8B80000F7B52D4F27
:10DE58000D003B6816001968002904D12A4B0A00F6
:10DE680003201B6898473B681A6812680192082AC1
:10DE780015D8100051F070F8050505051C2630442A
:10DE8800440018212148FCF7B3FD0400002D04D1FB
:10DE980010220630310051F08BF8002C25D13B6858
:10DEA8001868FCF7BFFD00223B681A605A60F7BD8E
:10DEB80028211648FCF79CFD0400002DEDD12122F5
:10DEC8000630E7E710211148FCF792FD0400002D09
:10DED800E3D108220630DDE708210C48FCF788FD6D
:10DEE8000400002DD9D133788371019BA58023606C
:10DEF8003B681868FCF7B2FD2100FCF798FDCEE7F7
:10DF08005C68CAE7C8B8000008BF000079C800000C
:10DF18000A6870B50B00040000200C2A0ED8100007
:10DF280051F01AF8070D13191F252B31373D605C86
:10DF380066000820374A3849FFF786FB70BD354A26
:10DF480036490820FFF787FBF8E7324A34490820AA
:10DF5800FFF788FBF2E72F4A32490820FFF789FBD1
:10DF6800ECE72C4A30490820FFF78AFBE6E7294A04
:10DF78002E490820FFF78BFBE0E7264A2C490820AA
:10DF8800FFF78CFBDAE7234A2A490820FFF7A6FBAC
:10DF9800D4E7204A27490820FFF7A7FBCEE7482106
:10DFA8002548FCF725FD002409230100050003602E
:10DFB800263184800630FFF7B5FB204E3368186899
:10DFC800FCF74CFD2900FCF732FD33681868FCF7B4
:10DFD80029FD33681C605C600020AFE71848FCF737
:10DFE800EDFEF9E7174A2431181DFCF707FFF3E7A0
:10DFF800081DFFF7ABFB210000220C2000F0B4F84D
:10E008000E4C23681868FCF70DFD00202368186083
:10E01800586093E755DE021881DB0218B9DB021855
:10E02800F5DB02182DDC021879DC0218B5DC0218C1
:10E03800E5DC021815DD021879C80000C8B8000030
:10E04800F5DD0218A5DD021870B5082104000B489B
:10E05800FCF7CEFCE5B20100200A80B2022D07D8F9
:10E068001422E4B25443064B1B681C190023236195
:10E0780000230D710B60FCF7DAFC70BD7AC8000054
:10E08800C8B80000F8B50B6807000D00142B03D0C2
:10E09800152B2FD00020F8BD08212348FCF7A8FC39
:10E0A800224B060018680469002C0BD0436A002B29
:10E0B80007D0836B0224002B04D0B0230324DB0099
:10E0C8000FE00124142223005343194AC118CA60DF
:10E0D8003A02083322430A61C0186968FFF77AFBDD
:10E0E80000232A68310038003260B380B471FCF72D
:10E0F8009EFCCFE70879022812D80C4B1A68142323
:10E10800584314182369002B0AD008301018FFF759
:10E11800A3FB002222613900286800F025F8B9E73E
:10E12800C1225200F7E7C04679C80000C8B800000D
:10E1380051E0021810B50A4C002802D121604C2089
:10E1480010BD23681868002801D0FCF76BFC236811
:10E158005868002801D0FCF765FC00232360EEE72F
:10E16800C8B800004C20704770B506000C0006487F
:10E1780008211500FCF73CFC0660858001002000A2
:10E18800FCF755FC70BDC04679C80000F8B51F4BB8
:10E198000D001400984232D11D4F3A681668002EBF
:10E1A8002BD12368152B06D8132B1DD80C2B0AD975
:10E1B800C122520012E01E3B062BF9D8210028008C
:10E1C800FFF706FC14E0146021002800FFF7A0FE0A
:10E1D80002000120002A0FD03B681E602900206839
:10E1E800FFF7C2FF002007E021002800FFF74AFFE1
:10E1F800020000208242F1D1F8BD064AEEE7064B44
:10E208000A001B68010002209847EBE778C8000065
:10E21800C8B800008202000008BF000010B5024B19
:10E228001B685B69984710BDCCB8000010B5034B5C
:10E238005C221B685B6D984710BDC046CCB80000D7
:10E2480010B5034B61221B685B6D984710BDC04633
:10E25800CCB8000010B5034B5D221B685B6D984776
:10E2680010BDC046CCB8000010B5034B62221B6835
:10E278005B6D984710BDC046CCB8000010B5041EB1
:10E2880001D104F0DFFD034B20001B685B68984751
:10E2980010BDC046CCB8000010B5041E08D101203E
:10E2A800064906F07FFC002807D0200004F0CAFDCC
:10E2B800034B20001B685B68984710BD85E2021875
:10E2C800CCB8000070B5040004F0FAFF104E002826
:10E2D8001AD104F0BDFE851E6B425D41EDB2002CE3
:10E2E80006D102280AD113F041FA012004F0AAFD50
:10E2F800290033681B682000984770BD11F0C4FBE3
:10E308000028F2D00400F3E7336800211B68F2E725
:10E31800CCB8000010B5002843D00368002B40D0CB
:10E328004368002B3DD08368002B3AD0C368002B8C
:10E3380037D00369002B34D04369002B31D083696F
:10E34800002B2ED0C369002B2BD0036A002B28D0BA
:10E35800436A002B25D0836A002B22D0C36A002B86
:10E368001FD0036B002B1CD0C36B002B19D0036C80
:10E37800002B16D0436C002B13D0002911D00B684A
:10E38800002B0ED04B68002B0BD08B68002B08D0CD
:10E39800CB68002B05D0074B18600020064B19608E
:10E3A80010BD0022054B012011001B689847C120B1
:10E3B8004000F5E7CCB80000D0B8000008BF000066
:10E3C800084B10B51B68002B01D1074810BD04F09D
:10E3D800BDFE0028F9D102000100044B06F0C0FB85
:10E3E800F4E7C046CCB8000082020000CDE2021873
:10E3F800074B10B51B68002B01D1064810BD04F06F
:10E40800A5FE0028F9D00449002006F0CBFBF5E76B
:10E41800CCB8000082020000A1E2021810B50A0080
:10E4280000230321FEF72CFE10BD10B5FEF704FFF4
:10E4380010BD13B504AC247800940BF079FB16BD1D
:10E44800F0B585B00AAC0BAD0CAE0DAF24782D88B5
:10E4580036783F7802960397019500940BF076FC86
:10E4680005B0F0BD7FB508AC09AD0AAE24782D78AB
:10E4780036880195029600940BF008FC04B070BD34
:10E4880010B50BF0EBFC10BDF7B504000D0016003D
:10E498001F0004F05BFE002808D1089B320000939F
:10E4A80029003B00200001F0D7FEFEBD0048FCE734
:10E4B8008202000010B5FF2804D0142902D803F006
:10E4C80097FF10BDC1204000FBE710B5FF2804D01E
:10E4D800142902D804F016F810BDC1204000FBE74B
:10E4E80070B504000D0004F031FE002805D12900A4
:10E4F8002000034A06F01AF970BD0248FCE7C0463E
:10E5080025E202188202000010B506F031F910BDAC
:10E5180010B506F0F5F810BD10B5040004F0B6F912
:10E528000100200005F070F810BD10B50EF024FAB7
:10E5380010BD13B5049C00940EF026FA13BD10B557
:10E548000EF058F810BD10B511F046FB10BD10B50F
:10E5580011F05AFB10BD70B50D001600040004F050
:10E56800AFFE32002900002803D0200012F0FCF989
:10E5780070BD200011F0C0FAFAE77FB508AC09AD0C
:10E588000AAE24782D78367801950296009409F021
:10E59800D5FE04B070BD10B509F03CFF10BD10B534
:10E5A80009F07EFF10BD10B50CF0BAFB10BD10B518
:10E5B80001200CF0DFFB10BD10B50222FF210CF08A
:10E5C8007FF810BD10B50CF021FA10BD10B50CF095
:10E5D80025FA10BD37B506AC07AD2D88247801950E
:10E5E80000940CF06FFA3EBD10B503F0C3F810BDEF
:10E5F80010B5C0B203F000F910BD13B56B46DC1DB1
:10E60800210003F065FB002803D10121207803F0E5
:10E6180081F916BD73B56B469D1D0E00290003F0E8
:10E6280057FB00280BD16B46DC1D2100300003F09E
:10E6380083FD002803D12978207803F08BFC76BD70
:10E6480013B56B46DC1D210003F042FB002802D104
:10E65800207803F035FA16BD13B56B46DC1D210092
:10E6680003F036FB002802D1207803F053FA16BDD8
:10E6780010B512F0DFF910BD10B512F047FA10BD51
:10E6880010B512F015FA10BDF0B585B00AAC0BAD97
:10E698000CAE0DAF24782D7836783F780296039724
:10E6A8000195009412F0C6FA05B0F0BD10B512F04D
:10E6B80023FB10BD10B5024B03F0C6F810BDC046D1
:10E6C80035E2021873B56B46DE1D0C0031001500EB
:10E6D80003F0FEFA002805D1290020003278024B09
:10E6E80003F0D6FB76BDC04649E2021837B56B4643
:10E6F800DD1D0C00290003F0EBFA002804D12100ED
:10E708002878024A03F06CF93EBDC0465DE2021863
:10E7180073B56B46DE1D0C003100150003F0D8FA06
:10E72800002805D1290020003278024B03F01CFD97
:10E7380076BDC04671E2021810B50EF033FE10BD6A
:10E7480010B50EF045FE10BD10B50EF067FE10BDF9
:10E7580010B50EF0A5FE10BD10B50EF015FF10BDDA
:10E7680010B50EF05DFF10BD13B5049C00940EF0BB
:10E77800A9FF16BD10B50FF031F810BD37B506ACBE
:10E7880007AD2D882488019500940FF093F83EBDBD
:10E7980010B50FF0F7F810BD10B50FF031F910BD36
:10E7A800F0B589B0079312AB1B780EAC9C46139B4F
:10E7B8000FAD10AE11AF24782D7836783F780593D9
:10E7C8006346039704930296079B019500940FF004
:10E7D80063F909B0F0BD10B50FF0C2FA10BD10B55D
:10E7E8000FF0D8FA10BD13B504AC247800940FF0DC
:10E7F80007FB16BD37B506AC07AD2D882478019503
:10E8080000940FF033FB3EBD044B10B5984202D87C
:10E8180000F0A8FF10BD13F047F8FBE759C8000047
:10E82800F7B5150000222A4B04001A602A000F00D1
:10E8380006F038F903260330B0433B1819002A00C4
:10E84800200001930FF062FB019B8019B0431B1855
:10E8580019002A002000019301F0F8FA019B8019A1
:10E86800B0431B1819002A002000019306F0A6FFE8
:10E87800019B8019B0431B1819002A00200001933E
:10E888000CF0ACFA019B8019B0431B1819002A0040
:10E898002000019312F072FE019B8019B0431B18EF
:10E8A80019002A002000019312F0D2FF019B801961
:10E8B800B0431E18002C07D12B68DB0304D52A00AF
:10E8C8003100200000F040FFF01B80B2FEBDC046C2
:10E8D800CCB8000070B5050001F00BFB040028005F
:10E8E800032606F0F9F803348019B043B44324181A
:10E8F800280006F025FF8019B043A4B22418280088
:10E908000FF036FB8019B043A4B2241828000CF08D
:10E91800A8FA8019B043A4B22418280012F022FEE5
:10E928008019B043A4B22418280012F0A9FF801956
:10E93800A4B2B0432B682418A4B2DB0302D5280084
:10E9480000F00EFF200070BD10B5024B1B689B69DC
:10E95800984710BDCCB8000010B5024B1B68DB69A6
:10E96800984710BDCCB8000010B5024B1B681B6857
:10E97800984710BDD0B8000010B5024B1B685B6803
:10E98800984710BDD0B8000010B5024B1B689B68B3
:10E99800984710BDD0B8000010B5024B1B68DB6863
:10E9A800984710BDD0B80000F8B50D000231070037
:10E9B80089B209481600FCF71BF804002A00310048
:10E9C80007704570023050F0F3FAFCF741F8210067
:10E9D800FCF72DF8F8BDC04620C8000010B5024B62
:10E9E8001B681B6A984710BDCCB8000010B5024BD5
:10E9F8001B685B6A984710BDCCB8000010B5024B85
:10EA08001B689B6A984710BDCCB8000037B5002535
:10EA180006AC6557024C24680095E46AA04737BDE8
:10EA2800CCB8000010B5024B1B681B6B984710BD93
:10EA3800CCB8000010B5024B1B685B6B984710BD43
:10EA4800CCB8000010B5024B1B689B6B984710BDF3
:10EA5800CCB8000010B5024C2468E46BA04710BD88
:10EA6800CCB8000037B506AC2578034C246800956F
:10EA7800246CA04737BDC046CCB8000010B5024B87
:10EA88001B685B6C984710BDCCB8000010B5024BF2
:10EA98001B689B6C984710BDCCB8000010B5024BA2
:10EAA8001B68DB6C984710BDCCB80000F0B587B088
:10EAB8000CAC25780DAC26880EAC27780FAC2488D2
:10EAC8000593A4466346054C246803930297019670
:10EAD8000095246D059BA04707B0F0BDCCB8000099
:10EAE80010B502F01FF910BD10B502F025F910BDE0
:10EAF80070B506000D0006480821FBF779FF0400F1
:10EB080006604560FBF7A4FF2100FBF790FF70BD8E
:10EB18002CC8000070B5022105000548FBF768FF06
:10EB280004000580FBF794FF2100FBF780FF70BD10
:10EB38002BC80000F8B507000E000748042115008F
:10EB4800FBF756FF040007808670C570FBF780FF4F
:10EB58002100FBF76CFFF8BD29C8000070B5022141
:10EB680005000548FBF744FF04000580FBF770FF2C
:10EB78002100FBF75CFF70BD28C80000F8B506004F
:10EB88000D00074808211700FBF732FF0400076053
:10EB980086808571FBF75CFF2100FBF748FFF8BD15
:10EBA80001C80000F0B587B001930CAB1B780600D4
:10EBB80002930DAB1B880F0003930EAB1B78142137
:10EBC80004930FAB1B880E4815000593FBF710FF45
:10EBD800C82304000360019BC7804372029B06712F
:10EBE8008372039B05728381049B8373059B038255
:10EBF800FBF72EFF2100FBF71AFF07B0F0BDC04658
:10EC080005C8000070B5042105000548FBF7F0FEB3
:10EC180004000560FBF71CFF2100FBF708FF70BD2F
:10EC280005C80000F8B507000E0008480C211500BB
:10EC3800FBF7DEFE8423040003600771C6800581AC
:10EC4800FBF706FF2100FBF7F2FEF8BD04C8000041
:10EC580070B5082105000648FBF7CAFE82230400A8
:10EC680003600571FBF7F4FE2100FBF7E0FE70BDC1
:10EC780004C8000070B506000D0007480821FBF71E
:10EC8800B7FEB423040003600671C580FBF7E0FEFD
:10EC98002100FBF7CCFE70BD04C8000070B506006B
:10ECA8000D0006480221FBF7A3FE0400067045701C
:10ECB800FBF7CEFE2100FBF7BAFE70BD46C8000088
:10ECC800F7B5009308AB1B7807000E005BB206216E
:10ECD800094815000193FBF78BFE0400009B078091
:10ECE8000371019B8670C5704371FBF7B1FE21006B
:10ECF800FBF79DFEF7BDC0463CC8000070B5060096
:10ED08000D0006480421FBF773FE040006804580C9
:10ED1800FBF79EFE2100FBF78AFE70BD3DC8000090
:10ED2800F8B507000E00074804211500FBF760FE40
:10ED38000400C77006808570FBF78AFE2100FBF788
:10ED480076FEF8BD16C8000010B500210448FBF790
:10ED58004FFE0400FBF77CFE2100FBF768FE10BDA8
:10ED680015C8000070B5012105000548FBF740FEF5
:10ED780004000570FBF76CFE2100FBF758FE70BD20
:10ED88001EC8000070B5012105000548FBF730FEDC
:10ED980004000570FBF75CFE2100FBF748FE70BD20
:10EDA80014C8000070B506000C00064808211500BC
:10EDB800FBF71EFE0660858001002000FBF737FE8A
:10EDC80070BDC04601C8000010B50400FBF740FE46
:10EDD800220001005020FFF7E5FF10BD10B5040028
:10EDE800FBF736FE220001000120FFF7DBFF10BD14
:10EDF800F8B507000E00074804211500FBF7F8FDD9
:10EE08000400077046804570FBF722FE2100FBF7DF
:10EE18000EFEF8BD35C8000010B500210448FBF708
:10EE2800E7FD0400FBF714FE2100FBF700FE10BD10
:10EE380033C8000070B506000D0006480421FBF732
:10EE4800D7FD040006704580FBF702FE2100FBF7A2
:10EE5800EEFD70BD32C8000070B506000D00074811
:10EE68000821FBF7C5FD0023040003608680857137
:10EE7800FBF7EEFD2100FBF7DAFD70BD01C80000CD
:10EE880070B5082105000648FBF7B2FD68230400A9
:10EE980003608580FBF7DCFD2100FBF7C8FD70BD32
:10EEA80001C80000F0B51C0085B00AAB1E780291BD
:10EEB800A719F91C0190890025480392FBF798FDD2
:10EEC8009F230100877200270360029B0B9A03713E
:10EED800019B0500C380039B0C310381600013185C
:10EEE8000193A4B2019B9A420BD1A6190C98B6B211
:10EEF800B44214D1FBF7ACFD2900FBF798FD05B02F
:10EF0800F0BD13789C46604653788F701B0203430C
:10EF18000B701B0A4B70CF7002320431E2E7437862
:10EF2800027881781B021343C2780904671C0B43DB
:10EF3800033412061A43A4002C19130A22706370B2
:10EF4800130C120EA370E2700430BCB2D0E7C046B6
:10EF580004C80000F0B587B001930CAB1B8806000D
:10EF680002930DAB1B880F0003930EAB1B88142173
:10EF780004930FAB1B780E4815000593FBF738FD7B
:10EF88009E2304000360019B07714381029BC68096
:10EF98008381039B0581C381049B0382059B837442
:10EFA800FBF756FD2100FBF742FD07B0F0BDC04658
:10EFB80004C80000F7B506000F000A481021150024
:10EFC8000193FBF715FD9C2304000360019B077167
:10EFD800C6800581C360FBF73BFD2100FBF727FDD9
:10EFE800F7BDC04604C80000F7B5009308AB1B88FE
:10EFF80006000F000B48142115000193FBF7F8FCDD
:10F008009A2304000360009B07714381099BC68013
:10F01800C360019B05720382FBF71AFD2100FBF711
:10F0280006FDF7BD04C80000F0B585B002930AAB31
:10F03800019204CB0F001D88060029000A314900FF
:10F0480089B214480392FBF7D3FC9923010004000A
:10F058000360019B0C9A0372029B05824381039B08
:10F068006D000771C680C36012315519AA4206D1D6
:10F07800FBF7EEFC2100FBF7DAFC05B0F0BD537896
:10F0880010781B0203430B701B0A4B7002320231CB
:10F09800ECE7C04604C80000F0B585B002930AAB9F
:10F0A800019204CB0F001D88060029000A3149008F
:10F0B80089B214480392FBF79BFC982301000400D3
:10F0C8000360019B0C9A0372029B05824381039B98
:10F0D8006D000771C680C36012315519AA4206D166
:10F0E800FBF7B6FC2100FBF7A2FC05B0F0BD537896
:10F0F80010781B0203430B701B0A4B70023202315B
:10F10800ECE7C04604C80000F0B589B002930EAB26
:10F118001B88050003930FAB1B880E00049310ABEC
:10F128001B782021059311AB1B781448069313AB69
:10F138001B780192079314AB1F78FBF759FC9723B0
:10F1480004000360019B06710372029BC580438122
:10F15800039B47768381049BC381059B0374069BAD
:10F168004374129B4361079B0376159BC361FBF7AE
:10F178006FFC2100FBF75BFC09B0F0BD04C8000080
:10F18800F7B5009308AB1B8806000F000A4810214A
:10F1980015000193FBF72CFC962304000360009BE9
:10F1A80007714381019BC68005728381FBF750FC80
:10F1B8002100FBF73CFCF7BD04C80000F7B500933D
:10F1C80008AB1B7806000F000A48102115000193B0
:10F1D800FBF70EFC952304000360009B0771438135
:10F1E800019BC68005720373FBF732FC2100FBF715
:10F1F8001EFCF7BD04C8000070B505000E000748E6
:10F208000821FBF7F5FB9B23040003600671C5800A
:10F21800FBF71EFC2100FBF70AFC70BD04C80000C8
:10F22800F7B5009308AB1B7806000F000A481021B9
:10F2380015000193FBF7DCFB942304000360009B9B
:10F2480007714381019BC68005720373FBF700FCBD
:10F258002100FBF7ECFBF7BD04C80000F7B50193EC
:10F2680008AB1D880F00290008314900060089B243
:10F2780012480092FBF7BCFB9323010004000360D3
:10F28800009B099A0372019B85816D000771C680F6
:10F2980043810E315519AA4205D1FBF7D9FB21004C
:10F2A800FBF7C5FBF7BD537810781B0203430B70BF
:10F2B8001B0A4B7002320231EDE7C04604C8000059
:10F2C800F7B506000F000A480C2115000193FBF75B
:10F2D8008FFB922304000360019B0771C6800572AF
:10F2E8004381FBF7B5FB2100FBF7A1FBF7BDC04647
:10F2F80004C80000F0B587B000930CAB1B8806006B
:10F3080001930DAB1B780F0002930EAB1B781421F1
:10F3180003930FAB1B781048049310AB1B781500B0
:10F328000593FBF765FB912304000360009B0771BD
:10F338004381019BC6808381029B05728373039B73
:10F34800C373049B0374059B4374FBF781FB210083
:10F35800FBF76DFB07B0F0BD04C80000F0B587B03F
:10F3680000930CAB1B78060001930DAB1B780F00C4
:10F3780002930EAB1B78142103930FAB1B88104824
:10F38800049310AB1B8815000593FBF731FB902302
:10F3980004000360009B07714381019BC6800373CF
:10F3A800029B05724373039B8373049B0382059B33
:10F3B8004382FBF74DFB2100FBF739FB07B0F0BD9B
:10F3C80004C80000F7B5009308AB1B7806000F00CF
:10F3D8000A480C2115000193FBF70AFB8F23040050
:10F3E8000360009B07714372019BC680057283729C
:10F3F800FBF72EFB2100FBF71AFBF7BD04C8000042
:10F40800F7B506000F000A480C2115000193FBF719
:10F41800EFFA8E2304000360019B0771C680057212
:10F428004372FBF715FB2100FBF701FBF7BDC04654
:10F4380004C80000F7B50F00991D4900060089B2FD
:10F4480010481C000192FBF7D3FA8D23019A04811E
:10F458006400050003600771C68014190A30A242CF
:10F4680005D1FBF7F5FA2900FBF7E1FAF7BD51786A
:10F478001378090219430170090A417002320230F7
:10F48800EDE7C04604C80000F8B506000F000848BC
:10F498000C211500FBF7ACFA8C23040003600771FC
:10F4A800C6800572FBF7D4FA2100FBF7C0FAF8BD55
:10F4B80004C80000F8B506000F0008480C21150024
:10F4C800FBF796FAA023040003600771C680057253
:10F4D800FBF7BEFA2100FBF7AAFAF8BD04C8000042
:10F4E80070B506000C00064808211500FBF780FAE5
:10F4F8000660858001002000FBF799FA70BDC046C0
:10F5080003C80000F7B51D0008AB1B780700009181
:10F518000F48202116000193FBF76AFA81230400A3
:10F528000360009B310087808371102207304FF001
:10F538003FFD20002900062217304FF039FD019BBE
:10F548006377FBF785FA2100FBF771FAF7BDC04630
:10F5580004C80000F7B507000E000C481C211D0068
:10F568000192FBF745FA802304000360019B290000
:10F5780083721022476006810B304FF019FDFBF7AC
:10F5880067FA2100FBF753FAF7BDC04604C800002C
:10F59800F8B506000D000C484421FBF729FA20278E
:10F5A800AA2304003A0008C031004FF001FD2000F2
:10F5B8003A00290024304FF0FBFCFBF749FA210000
:10F5C800FBF735FAF8BDC04604C80000F7B50F00D0
:10F5D80019000C31060089B20B481D000192FBF797
:10F5E80007FA9D2304000360019B2A00037208990F
:10F5F8000771C68045810C304FF0DAFCFBF728FA1A
:10F608002100FBF714FAF7BD04C80000F7B5019311
:10F6180008AB1D780F002900060010310C48009235
:10F62800FBF7E6F9A12304000360009B2A0003729C
:10F63800019B099943810771C68005730D304FF00E
:10F64800B7FCFBF705FA2100FBF7F1F9F7BDC04657
:10F6580004C80000F8B505000E0008480C21170082
:10F66800FBF7C6F904000570476006812800FFF71C
:10F678003BFA2100FBF7DBF9F8BDC0460EC80000D5
:10F6880070B505000E0007480821FBF7B1F9040022
:10F69800057046602800FFF727FA2100FBF7C7F935
:10F6A80070BDC0460AC80000F0B587B002930CAB25
:10F6B8001B88019103930DAB1B7816005BB2049372
:10F6C8000EAB1B78050005931789938839000C3118
:10F6D80089B20F483436F618FBF78AF90400029B02
:10F6E8003A004370049B31008370059B0570C3701A
:10F6F800019B47814360039B03810C304FF058FC0A
:10F708002800FFF7F1F92100FBF791F907B0F0BDE8
:10F718000CC80000F7B505000F000A4804211600C0
:10F728000193FBF765F90400019B0570438047705E
:10F738002800FFF7D9F92100FBF779F93000FEF727
:10F7480074FEF7BD0DC8000010B503490348FEF765
:10F75800E1FD002010BDC04634FE0218DCFD021891
:10F7680000207047F0B51400954A03000D008BB0D7
:10F77800904200D1E6E217D8E0229201821892B2B4
:10F788000B2A1DD88F4A80180B2819D84FF0F8FB80
:10F798001F0018006802180018001800AB021800B3
:10F7A800180018001800D402874A904200D1D8E205
:10F7B800864A904200D1D8E2854A904200D1C7E2F9
:10F7C800844A1900146802202A00A047D0E1206862
:10F7D800842800D941E24FF0D3FB8500890040021C
:10F7E80040028C00AB00B1004002400240024002DF
:10F7F80040024002400240024002400240024002F1
:10F808004002CC0003014002400240024002400294
:10F818004002400240022F014002400240024002E2
:10F82800400240024002400240023A0140024002C7
:10F8380040024002400240024002400240024901A8
:10F8480040024002400240024002400240024002A0
:10F8580040024D015A016001640169014002400201
:10F868004002400240026F0173018001870140029B
:10F8780040024002400240024002B600BD00C500FE
:10F888004002400240024002400240024002400260
:10F898004002930199019E01A201A601AA01B101AA
:10F8A800B801BD01C20140024002C8014002400245
:10F8B800400240024002CE01D301DA01E201E80130
:10F8C800F201F90104020A02110240024002400258
:10F8D800400240024002400240024002400225022B
:10F8E8002C023502FEF76CFD0600F2E0FEF780FD03
:10F8F800FAE709AF627A217A0097374B6068FEF71A
:10F90800C3FD061E079059D108213448FBF770F84B
:10F91800040029003878FFF7E3F804232100236066
:10F92800079BA3803B78A3712800FBF780F81FE1B1
:10F9380061792079FEF7BEFD020085E061792079C2
:10F94800FEF7C3FDF8E721006368083198B2FEF7B7
:10F95800C7FDC9E7FEF7D8FD290002005120FFF7CF
:10F9680021FA05E16068FEF7D3FD29000200522064
:10F97800F5E7BE23A2895B009A425AD200230321ED
:10F9880009A8FDF77DFB061E18D1099B2100180068
:10F998009B8834300E31A289C0184FF009FBA37937
:10F9A8006279591E8B4120790093A168099BFEF763
:10F9B80040FD061E02D00998FEF737FD320043E0ED
:10F9C8001FC800000038FFFF34C8000036C8000018
:10F9D8002AC8000008BF000044FE021801C8000041
:10F9E800BE23228A5B009A4223D20023032109A85E
:10F9F800FDF746FB061EE1D1099B210018009B88F4
:10FA080034301231228AC0184FF0D2FAA37BA2797F
:10FA1800591E8B4120790393E379591E8B41029338
:10FA2800A389019363790093A168099BFEF708FDF8
:10FA3800BFE7C1267600C1E72300E279A179A08853
:10FA48000833FEF772FD00222900206887E7482165
:10FA5800B448FAF7CDFF0100236806000360263199
:10FA68000630FEF774FD3100B0805DE72079FEF7BF
:10FA780053FD61E7617CA37BA2890291217C0191FE
:10FA8800E17B0091A1686068FEF777FD54E7FEF717
:10FA980082FD290002003D2061E7A088FEF77FFD76
:10FAA8004AE7217A6068FEF77EFD45E7FEF77FFDAD
:10FAB80029000200402052E72079FEF77DFD3BE750
:10FAC8002079FEF77FFD0600020029002068FFF775
:10FAD80069F9002E00D071E74AE02389A27961799B
:10FAE8002079FEF773FDEEE76389E2886179207972
:10FAF8000193237A009323000C33FEF76BFDE2E7B2
:10FB08000022A088A11DFEF7D5FDEDE6A088A11D65
:10FB1800FEF7ECFDE8E6A088FEF76FFD0CE7A0888D
:10FB2800FEF78EFD08E7A088FEF796FD04E72200A1
:10FB3800E188A0880832FEF7C5FDD5E62200E188F5
:10FB4800A0880832FEF7E4FDCEE6E188A088FEF73B
:10FB580061FDF1E6A179A088FEF78AFDECE6627DF9
:10FB68002079611DFEF788FDE6E66F48FEF788FDFF
:10FB780000200BB0F0BDE1882079FEF7E5FDDBE65B
:10FB88002200E18820790832FEF7E2FDD4E623005E
:10FB98002289E18820790A33FEF7DEFDCCE6E18888
:10FBA8002079A268FEF7DCFDC6E622001032237B2E
:10FBB800E18820790092A268FEF7D6FDBCE6E379D9
:10FBC800A27961792079FEF7D5FDB5E6E689A37AB1
:10FBD8002289E188A0880196A6890096FEF7CEFDC5
:10FBE800AAE62289E188A088FEF7D2FDA4E6228948
:10FBF800E1882079E368FEF7CFFD9DE622002669BB
:10FC08002389E18820790596A67B16320496667BBF
:10FC18000396267B0296E67A0196A67A0096FEF768
:10FC2800BFFD89E62389E279A179A088FEF7D7FD8F
:10FC380082E6667A237AE279A179A0880096FEF7AF
:10FC4800D2FD79E66689237AE279A179A0880196BE
:10FC5800667A0096FEF7CEFD6EE6A8263601ADE67A
:10FC68002368652B0DD8592B0DD918005A380B2845
:10FC780009D84FF071F90D1F080808080808080886
:10FC8800282C6E2B29D0A82229001800120117E071
:10FC980009AF3A00A18A201DFEF7A6FC060008213C
:10FCA8002248FAF7A5FE2368868003603B780100A6
:10FCB800837139E6A088FEF79BFC290002002068C2
:10FCC800FFF70EFC54E71A48FEF736FDF5E7E28821
:10FCD80061792079FEF734FDEFE709AF390015485F
:10FCE800FEF779FDDAE72068C82804D0C92811D0C2
:10FCF800A8221201E4E7257B237AE288617920793A
:10FD08000395E57A0295A57A0195647A0094FEF741
:10FD1800BBFC2DE7220020792532611DFEF7C6FCC9
:10FD280026E7C04601C8000089EE021803C8000093
:10FD380084FD0218D4FD0218628820786168FEF7F5
:10FD48009FFB15E761782078A21CFEF7F8FB0FE708
:10FD5800637922796188207806340094FEF7E9FBFC
:10FD680006E72000FEF7EFFB02E720786178431EE4
:10FD78009841A21CC0B2FEF7EEFBF9E691F4021816
:10FD88003DF4021809F40218CDF3021865F30218BD
:10FD9800FDF20218C9F2021865F2021829F20218D7
:10FDA80001F20218C5F1021889F1021811F10218BE
:10FDB800A1F0021831F00218F1EF0218BDEF021895
:10FDC800D5F502185DEF0218ADEE0218BDF4021861
:10FDD80015F6021861EE0218E5ED02183DEE02185C
:10FDE80021EE0218F9ED0218D1ED02188DED021876
:10FDF8006DED021851ED021829ED021805ED0218F3
:10FE0800C9EC0218A5EC02187DEC021899F5021845
:10FE18005DF502180DF5021859EC02182DEC0218C0
:10FE28000DEC0218ADEB021885EB021865EB021811
:10FE38003DEB02181DEB0218F9EA0218B1F6021898
:10FE48001DF7021889F602185DF60218F7B51500B5
:10FE580004000F0002F0BAFE03260330B0433B183B
:10FE68002A0019002000019300F0A8F9019B8019CD
:10FE7800B0431B182A0019002000019302F096FFD6
:10FE8800019B8019B0431B182A0019002000019318
:10FE980004F0FCFB019B8019B0431B182A001900D1
:10FEA8002000019303F030FB019B8019B0431B181D
:10FEB8002A0019002000019303F0CCFC019B801953
:10FEC800B0431B182A0019002000019303F048FDD5
:10FED800019B8019B0431B182A00190020000193C8
:10FEE80003F04EFE019B8019B0431818C01B80B266
:10FEF800FEBD70B5050001F021FC040028000326B2
:10FF080000F076F903348019B043B443241828006C
:10FF180002F07EFF8019B043A4B22418280004F030
:10FF2800EDFB8019B043A4B22418280003F0FCFAB2
:10FF38008019B043A4B22418280003F0A3FC801948
:10FF4800B043A4B22418280003F026FD8019B0435A
:10FF5800A4B22418280003F025FE8019B043A4B2E7
:10FF6800201880B270BD70B50400008A012805D140
:10FF7800608B401A431E984180B270BD0028FCD0A7
:10FF88000023451EADB2EA1A52109A1892B2160012
:10FF98000C367600A61976888E4217D0AB42ECD084
:10FFA8008E4211D315005A1C9542ECD10B325200E7
:10FFB800A21852888A420BD00D335B00E41863887C
:10FFC8008B42DAD12800D8E71300ECE71000D4E719
:10FFD8001800D2E7184B10B51A68F0239B00D258C6
:10FFE800131E21D0002311899CB28B4210D3002309
:08FFF8008C4219D153898B42A0
:020000041803DF
:100000001BD90124CBB29B00D31898819C7309198A
:100010001368118198470AE09C1CA4001419A48855
:10002000844207D19B00D3189A7B01329A73002334
:10003000180010BD0133DBB2DAE7B023DB00F7E7CD
:10004000D4B800001C4B70B51A68F0239B00D4583C
:100050000600002C2BD0002826D0002521898D42B7
:1000600025D2AB1C9B00E3189B88B34220D1AA0089
:10007000A218937B013BDBB29373002B17D163680B
:100080003000984722896B1C934209DAE91C521B05
:100090000C258900601804316A4361184EF08CFF0A
:1000A0002389013B238102E063689847268170BD64
:1000B0000135EDB2D3E7C046D4B80000142310B523
:1000C00058430D4C236818180C4BC2181378002B9A
:1000D00010D0013BDBB21370002B0BD1F1239B003E
:1000E000C0180088FFF7AEFF85222168D2008B5C24
:1000F000013B8B5410BDC046D4B80000D6030000AD
:10010000F8B50600002410270A4B1D680A4BED18AD
:100110002B7C002B06D03A00310028004EF03EFF29
:10012000002805D00134E4B21435052CF0D1FA349E
:100130002000F8BDD4B80000C6030000F7B50600E3
:1001400008000D00FFF7DCFF1B4B1C68FF2808D0E0
:1001500014234343E418194BE41823780133237024
:10016000FEBD8523DB00E35C042BF9D80022134B92
:10017000E718D3B2019314235343F95C002903D049
:100180000132052AF5D1EBE7F121E2188900511877
:100190000E800A49521801211170094A2900981845
:1001A000201810224EF008FF8522D200A35C01988F
:1001B0000133A354D4E7C046D4B80000D6030000EE
:1001C000C603000010B50A4C002806D10122094BD5
:1001D0002160CA548620C00010BDF02322689B0015
:1001E000D058002801D0FAF745FC00232360F1E73E
:1001F000D4B800002A0400008620C0007047000028
:10020000024B1A68024BD05C7047C046D4B800005D
:1002100029040000F7B50F4B1D680F4B2C00EB5C59
:1002200001930023019E9E4202D1A02080000BE09A
:10023000277E0A4EBC46AE5B6644864205D12668E0
:100240008E4202D100201370FEBD0133DBB2303488
:10025000E8E7C046D4B80000290400002C040000E0
:10026000F7B506000C0000920193002B33D01B4B16
:100270001B4F1D68EB5D132B01D91A48FEBD1A4BAD
:10028000089AE85A401880B23100FFF7C3FFA02354
:100290009B009842F1D1EA5D089B00991A70531CAB
:1002A000EB55302353430022EB181A82019A009831
:1002B0005A6001221C761E601140104208D19975C7
:1002C0000A4B0020EA5CA242D8D80134EC54D5E7AE
:1002D00002229A75F4E7C1204000CFE7D4B80000AD
:1002E00029040000820200002C0400002A040000FF
:1002F000024B1A683023434398587047D4B8000023
:10030000094A030012680948105C984209D9302054
:1003100058431018037E0648125A00209B180B8081
:100320007047A0208000FBE7D4B80000290400003B
:100330002C040000074B084A1B689A5C824206D9CD
